{"abi":[{"type":"constructor","inputs":[{"name":"_appId","type":"string","internalType":"string"},{"name":"_action","type":"string","internalType":"string"}],"stateMutability":"nonpayable"},{"type":"function","name":"addDailyRun","inputs":[{"name":"challengeId","type":"uint256","internalType":"uint256"},{"name":"distanceKm","type":"uint256","internalType":"uint256"}],"outputs":[],"stateMutability":"nonpayable"},{"type":"function","name":"addDailyRunOnBehalfOfUser","inputs":[{"name":"challengeId","type":"uint256","internalType":"uint256"},{"name":"distanceKm","type":"uint256","internalType":"uint256"},{"name":"userAdress","type":"address","internalType":"address"}],"outputs":[],"stateMutability":"nonpayable"},{"type":"function","name":"completeChallenge","inputs":[{"name":"challengeId","type":"uint256","internalType":"uint256"}],"outputs":[],"stateMutability":"nonpayable"},{"type":"function","name":"createNewChallenge","inputs":[{"name":"name","type":"string","internalType":"string"},{"name":"stakingAmount","type":"uint256","internalType":"uint256"},{"name":"startTime","type":"uint256","internalType":"uint256"},{"name":"endTime","type":"uint256","internalType":"uint256"}],"outputs":[],"stateMutability":"nonpayable"},{"type":"function","name":"getChallengeDetail","inputs":[{"name":"challengeId","type":"uint256","internalType":"uint256"}],"outputs":[{"name":"","type":"tuple","internalType":"struct StakeAndRun.Challenge","components":[{"name":"name","type":"string","internalType":"string"},{"name":"stakingAmount","type":"uint256","internalType":"uint256"},{"name":"startTime","type":"uint256","internalType":"uint256"},{"name":"endTime","type":"uint256","internalType":"uint256"},{"name":"totalStaked","type":"uint256","internalType":"uint256"},{"name":"isCompleted","type":"bool","internalType":"bool"}]}],"stateMutability":"view"},{"type":"function","name":"getLeaderBoard","inputs":[{"name":"challengeId","type":"uint256","internalType":"uint256"}],"outputs":[{"name":"","type":"address[]","internalType":"address[]"}],"stateMutability":"view"},{"type":"function","name":"isParticipant","inputs":[{"name":"challengeId","type":"uint256","internalType":"uint256"},{"name":"user","type":"address","internalType":"address"}],"outputs":[{"name":"","type":"bool","internalType":"bool"}],"stateMutability":"view"},{"type":"function","name":"isRealHuman","inputs":[{"name":"","type":"address","internalType":"address"}],"outputs":[{"name":"","type":"bool","internalType":"bool"}],"stateMutability":"view"},{"type":"function","name":"joinChallenge","inputs":[{"name":"challengeId","type":"uint256","internalType":"uint256"},{"name":"telegramHandler","type":"string","internalType":"string"}],"outputs":[],"stateMutability":"payable"},{"type":"function","name":"joinChallengeOnBehalfOfUser","inputs":[{"name":"challengeId","type":"uint256","internalType":"uint256"},{"name":"telegramHandler","type":"string","internalType":"string"},{"name":"user","type":"address","internalType":"address"}],"outputs":[],"stateMutability":"payable"},{"type":"function","name":"verifyAndExecute","inputs":[{"name":"signal","type":"address","internalType":"address"},{"name":"root","type":"uint256","internalType":"uint256"},{"name":"nullifierHash","type":"uint256","internalType":"uint256"},{"name":"proof","type":"uint256[8]","internalType":"uint256[8]"}],"outputs":[],"stateMutability":"nonpayable"},{"type":"function","name":"verifyByUsingCloudData","inputs":[{"name":"userHash","type":"bytes32","internalType":"bytes32"},{"name":"user","type":"address","internalType":"address"}],"outputs":[],"stateMutability":"nonpayable"},{"type":"event","name":"ChallengeCompleted","inputs":[{"name":"challengeId","type":"uint256","indexed":false,"internalType":"uint256"}],"anonymous":false},{"type":"event","name":"DailyRunUploaded","inputs":[{"name":"challengeId","type":"uint256","indexed":false,"internalType":"uint256"},{"name":"user","type":"address","indexed":false,"internalType":"address"},{"name":"distance","type":"uint256","indexed":false,"internalType":"uint256"}],"anonymous":false},{"type":"event","name":"NewChallenge","inputs":[{"name":"id","type":"uint256","indexed":false,"internalType":"uint256"},{"name":"startTime","type":"uint256","indexed":false,"internalType":"uint256"},{"name":"endTime","type":"uint256","indexed":false,"internalType":"uint256"}],"anonymous":false},{"type":"event","name":"NewUser","inputs":[{"name":"challengeId","type":"uint256","indexed":false,"internalType":"uint256"},{"name":"user","type":"address","indexed":false,"internalType":"address"}],"anonymous":false},{"type":"error","name":"InvalidNullifier","inputs":[]}],"bytecode":{"object":"0x60e0604052600160c05234801561001557600080fd5b506040516123df3803806123df833981016040819052610034916101b5565b600380546001600160a01b031990811633179091556005805460ff1916905560028054909116735fc01da058da238756133c51d4152d32279df90f1790556040516100b2906100a09061008b90859060200161021e565b60408051601f198184030181529190526100bd565b8260405160200161008b92919061023a565b60a052506102609050565b60006008826040516020016100d2919061021e565b60408051601f198184030181529190528051602090910120901c92915050565b634e487b7160e01b600052604160045260246000fd5b60005b8381101561012357818101518382015260200161010b565b50506000910152565b600082601f83011261013d57600080fd5b81516001600160401b03811115610156576101566100f2565b604051601f8201601f19908116603f011681016001600160401b0381118282101715610184576101846100f2565b60405281815283820160200185101561019c57600080fd5b6101ad826020830160208701610108565b949350505050565b600080604083850312156101c857600080fd5b82516001600160401b038111156101de57600080fd5b6101ea8582860161012c565b602085015190935090506001600160401b0381111561020857600080fd5b6102148582860161012c565b9150509250929050565b60008251610230818460208701610108565b9190910192915050565b82815260008251610252816020850160208701610108565b919091016020019392505050565b60805160a05160c05161215061028f60003960006116a5015260006117070152600061167501526121506000f3fe6080604052600436106100a75760003560e01c8063a962a50111610064578063a962a50114610193578063bffde480146101b3578063d3ad3e34146101e0578063e96b46d8146101f3578063e9b7055314610213578063feeeb7a11461023357600080fd5b80633caefbbf146100ac578063434cba47146100f15780635cafbc901461011e578063758d9b8914610140578063a612019614610160578063a7817bbc14610173575b600080fd5b3480156100b857600080fd5b506100dc6100c7366004611b10565b60086020526000908152604090205460ff1681565b60405190151581526020015b60405180910390f35b3480156100fd57600080fd5b5061011161010c366004611b32565b610253565b6040516100e89190611b6f565b34801561012a57600080fd5b5061013e610139366004611c89565b610376565b005b34801561014c57600080fd5b506100dc61015b366004611cdd565b61052a565b61013e61016e366004611d09565b610557565b34801561017f57600080fd5b5061013e61018e366004611b32565b6106a8565b34801561019f57600080fd5b5061013e6101ae366004611cdd565b610d31565b3480156101bf57600080fd5b506101d36101ce366004611b32565b610e1a565b6040516100e89190611d60565b61013e6101ee366004611dac565b6110da565b3480156101ff57600080fd5b5061013e61020e366004611df3565b611380565b34801561021f57600080fd5b5061013e61022e366004611e15565b611643565b34801561023f57600080fd5b5061013e61024e366004611e64565b6117af565b61028e6040518060c0016040528060608152602001600081526020016000815260200160008152602001600081526020016000151581525090565b60008281526006602052604090819020815160c081019092528054829082906102b690611e90565b80601f01602080910402602001604051908101604052809291908181526020018280546102e290611e90565b801561032f5780601f106103045761010080835404028352916020019161032f565b820191906000526020600020905b81548152906001019060200180831161031257829003601f168201915b50505091835250506001820154602082015260028201546040820152600382015460608201526004820154608082015260059091015460ff16151560a09091015292915050565b4282116103d65760405162461bcd60e51b8152602060048201526024808201527f53746172742074696d65206e65656420746f20626520696e20746865206675746044820152633ab9329760e11b60648201526084015b60405180910390fd5b8082106104345760405162461bcd60e51b815260206004820152602660248201527f53746172742074696d65206e65656420746f206265206265666f726520656e64604482015265103a34b6b29760d11b60648201526084016103cd565b6040805160c08101825285815260208082018690528183018590526060820184905260006080830181905260a083018190526004548152600690915291909120815182919081906104859082611f19565b50602082810151600183015560408084015160028401556060808501516003850155608085015160048086019190915560a0909501516005909401805460ff191694151594909417909355925483519081529081018690529182018490527fdde3965ad042df60693f9e2c894f4da932c1c7ccea1c9e3c372a70042efd0c94910160405180910390a16004805490600061051e83611fee565b91905055505050505050565b60008281526007602090815260408083206001600160a01b038516845290915290205460ff165b92915050565b60008381526007602090815260408083206001600160a01b038516808552908352818420805460ff19166001179055815160808101835286815280840185905287855260068452828520600201548184015260608101859052878552600984528285209185529252909120815181906105d09082611f19565b506020828101516001838101919091556040808501516002850155606090940151600390930192909255600b80548084019091557f0175b7a638427703f0dbe7bb9bbf987a2551717b34e79f33b5b1008d1fa01db90180546001600160a01b0319166001600160a01b0386161790556000868152600690915291822001805434929061065d908490612007565b9091555050604080518481526001600160a01b03831660208201527f82ff713a8585d7b6ad9cfe09df409e3b9a7fe6f712d4a85d5cdc57af76d02b49910160405180910390a1505050565b60008181526006602052604090206003015442116107085760405162461bcd60e51b815260206004820152601860248201527f4368616c6c656e676520686173206e6f7420656e64656421000000000000000060448201526064016103cd565b600b5460009067ffffffffffffffff81111561072657610726611be4565b60405190808252806020026020018201604052801561074f578160200160208202803683370190505b50905060005b600b548110156107c257600b81815481106107725761077261201a565b9060005260206000200160009054906101000a90046001600160a01b03168282815181106107a2576107a261201a565b6001600160a01b0390921660209283029190910190910152600101610755565b5060005b8151811015610940576000838152600960205260408120600b8054839190859081106107f4576107f461201a565b60009182526020808320909101546001600160a01b031683528201929092526040018120600190810154925061082b908490612007565b90505b8351811015610936576000858152600960205260408120600b80548391908590811061085c5761085c61201a565b60009182526020808320909101546001600160a01b0316835282019290925260400190206001015490508083101561092d5760008585815181106108a2576108a261201a565b602002602001015190508583815181106108be576108be61201a565b60200260200101518686815181106108d8576108d861201a565b60200260200101906001600160a01b031690816001600160a01b0316815250508086848151811061090b5761090b61201a565b60200260200101906001600160a01b031690816001600160a01b031681525050505b5060010161082e565b50506001016107c6565b5060005b81518110156109b4576000838152600a60205260409020825183908390811061096f5761096f61201a565b60209081029190910181015182546001808201855560009485529290932090920180546001600160a01b0319166001600160a01b039093169290921790915501610944565b50600082815260066020526040808220815160c081019092528054829082906109dc90611e90565b80601f0160208091040260200160405190810160405280929190818152602001828054610a0890611e90565b8015610a555780601f10610a2a57610100808354040283529160200191610a55565b820191906000526020600020905b815481529060010190602001808311610a3857829003601f168201915b5050509183525050600182810154602083015260028301546040830152600383015460608301526004830154608083015260059092015460ff16151560a09091015283519192501015610b56576000600a82602001516005610ab79190612030565b610ac1919061205d565b905060008084600081518110610ad957610ad961201a565b60200260200101516001600160a01b03168360405160006040518083038185875af1925050503d8060008114610b2b576040519150601f19603f3d011682016040523d82523d6000602084013e610b30565b606091505b509150915081610b525760405162461bcd60e51b81526004016103cd90612071565b5050505b600282511115610c14576000600a82602001516003610b759190612030565b610b7f919061205d565b905060008084600081518110610b9757610b9761201a565b60200260200101516001600160a01b03168360405160006040518083038185875af1925050503d8060008114610be9576040519150601f19603f3d011682016040523d82523d6000602084013e610bee565b606091505b509150915081610c105760405162461bcd60e51b81526004016103cd90612071565b5050505b600382511115610cd2576000600a82602001516002610c339190612030565b610c3d919061205d565b905060008084600081518110610c5557610c5561201a565b60200260200101516001600160a01b03168360405160006040518083038185875af1925050503d8060008114610ca7576040519150601f19603f3d011682016040523d82523d6000602084013e610cac565b606091505b509150915081610cce5760405162461bcd60e51b81526004016103cd90612071565b5050505b6040518381527fc61ef8151923bbd8dc5f723ba25f26bb805ef4f9a52c5811df7242872edd2e0b9060200160405180910390a1610d11600b6000611aba565b50506000908152600660205260409020600501805460ff19166001179055565b6002546001600160a01b03163314610d835760405162461bcd60e51b81526020600482015260156024820152742737ba103a3432903737b2329037b832b930ba37b960591b60448201526064016103cd565b60008281526001602052604090205460ff1615610ddb5760405162461bcd60e51b8152602060048201526016602482015275082d8e4cac2c8f240d6dcdeee40e8d0d2e640d0c2e6d60531b60448201526064016103cd565b6000918252600160208181526040808520805460ff1990811685179091556001600160a01b039094168552600890915290922080549091169091179055565b6000818152600a602052604090205460609015610e9b576000828152600a602090815260409182902080548351818402810184019094528084529091830182828015610e8f57602002820191906000526020600020905b81546001600160a01b03168152600190910190602001808311610e71575b50505050509050919050565b600b5460009067ffffffffffffffff811115610eb957610eb9611be4565b604051908082528060200260200182016040528015610ee2578160200160208202803683370190505b50905060005b600b54811015610f5557600b8181548110610f0557610f0561201a565b9060005260206000200160009054906101000a90046001600160a01b0316828281518110610f3557610f3561201a565b6001600160a01b0390921660209283029190910190910152600101610ee8565b5060005b81518110156110d3576000848152600960205260408120600b805483919085908110610f8757610f8761201a565b60009182526020808320909101546001600160a01b0316835282019290925260400181206001908101549250610fbe908490612007565b90505b83518110156110c9576000868152600960205260408120600b805483919085908110610fef57610fef61201a565b60009182526020808320909101546001600160a01b031683528201929092526040019020600101549050808310156110c05760008585815181106110355761103561201a565b602002602001015190508583815181106110515761105161201a565b602002602001015186868151811061106b5761106b61201a565b60200260200101906001600160a01b031690816001600160a01b0316815250508086848151811061109e5761109e61201a565b60200260200101906001600160a01b031690816001600160a01b031681525050505b50600101610fc1565b5050600101610f59565b5092915050565b60016004546110e9919061209f565b82146111375760405162461bcd60e51b815260206004820152601860248201527f4368616c6c656e676520646f6573206e6f74206578697374000000000000000060448201526064016103cd565b60008281526006602052604090206002015442106111975760405162461bcd60e51b815260206004820152601c60248201527f4368616c6c656e67652068617320616c7265616479207374617274210000000060448201526064016103cd565b6000828152600660205260409020600101543410156111e95760405162461bcd60e51b815260206004820152600e60248201526d09cdee840cadcdeeaced040cae8d60931b60448201526064016103cd565b600082815260076020908152604080832033845290915290205460ff161561124b5760405162461bcd60e51b8152602060048201526015602482015274105b1c9958591e4818481c185c9d1a58da5c185b9d605a1b60448201526064016103cd565b600082815260076020908152604080832033808552908352818420805460ff19166001179055815160808101835285815280840185905286855260068452828520600201548184015260608101859052868552600984528285209185529252909120815181906112bb9082611f19565b506020828101516001808401919091556040808501516002850155606090940151600390930192909255600b80548084019091557f0175b7a638427703f0dbe7bb9bbf987a2551717b34e79f33b5b1008d1fa01db90180546001600160a01b031916331790556000858152600690915291822001805434929061133f908490612007565b9091555050604080518381523360208201527f82ff713a8585d7b6ad9cfe09df409e3b9a7fe6f712d4a85d5cdc57af76d02b49910160405180910390a15050565b60008281526006602052604090206002015442116113e05760405162461bcd60e51b815260206004820152601a60248201527f4368616c6c656e676520686173206e6f7420737461727465642100000000000060448201526064016103cd565b60008281526006602052604090206005015460ff161561143c5760405162461bcd60e51b81526020600482015260176024820152764368616c6c656e676520697320636f6d706c657465642160481b60448201526064016103cd565b611446823361052a565b6114925760405162461bcd60e51b815260206004820152601a60248201527f55736572206973206e6f742061207061727469636970616e742100000000000060448201526064016103cd565b600181116114da5760405162461bcd60e51b81526020600482015260156024820152744d7573742072756e206174206c6561737420316b6d60581b60448201526064016103cd565b600082815260096020908152604080832033845290915280822081516080810190925280548290829061150c90611e90565b80601f016020809104026020016040519081016040528092919081815260200182805461153890611e90565b80156115855780601f1061155a57610100808354040283529160200191611585565b820191906000526020600020905b81548152906001019060200180831161156857829003601f168201915b505050505081526020016001820154815260200160028201548152602001600382015481525050905060008160400151426115c0919061209f565b9050620195008111156115e0576115da62015180826120b2565b60608301525b82826020018181516115f29190612007565b9052504260408381019190915280518581523360208201529081018490527f3a41a813cc9897a9b289c048266df2a9058b65f500e07a2ffb3a220bca6908f19060600160405180910390a150505050565b60008281526020819052604090205460ff161561167357604051632ec8265960e11b815260040160405180910390fd5b7f00000000000000000000000000000000000000000000000000000000000000006001600160a01b0316633bc778e3847f0000000000000000000000000000000000000000000000000000000000000000611704886040516020016116f0919060609190911b6bffffffffffffffffffffffff1916815260140190565b604051602081830303815290604052611a85565b867f0000000000000000000000000000000000000000000000000000000000000000876040518763ffffffff1660e01b8152600401611748969594939291906120c6565b60006040518083038186803b15801561176057600080fd5b505afa158015611774573d6000803e3d6000fd5b50505060009283525050602081815260408083208054600160ff19918216811790925533855260089093529220805490911690911790555050565b600083815260066020526040902060020154421161180f5760405162461bcd60e51b815260206004820152601a60248201527f4368616c6c656e676520686173206e6f7420737461727465642100000000000060448201526064016103cd565b60008381526006602052604090206005015460ff161561186b5760405162461bcd60e51b81526020600482015260176024820152764368616c6c656e676520697320636f6d706c657465642160481b60448201526064016103cd565b611875838261052a565b6118c15760405162461bcd60e51b815260206004820152601a60248201527f55736572206973206e6f742061207061727469636970616e742100000000000060448201526064016103cd565b600182116119095760405162461bcd60e51b81526020600482015260156024820152744d7573742072756e206174206c6561737420316b6d60581b60448201526064016103cd565b60008381526009602090815260408083206001600160a01b038516845290915280822081516080810190925280548290829061194490611e90565b80601f016020809104026020016040519081016040528092919081815260200182805461197090611e90565b80156119bd5780601f10611992576101008083540402835291602001916119bd565b820191906000526020600020905b8154815290600101906020018083116119a057829003601f168201915b505050505081526020016001820154815260200160028201548152602001600382015481525050905060008160400151426119f8919061209f565b905062019500811115611a1857611a1262015180826120b2565b60608301525b8382602001818151611a2a9190612007565b9052504260408381019190915280518681526001600160a01b03851660208201529081018590527f3a41a813cc9897a9b289c048266df2a9058b65f500e07a2ffb3a220bca6908f19060600160405180910390a15050505050565b6000600882604051602001611a9a91906120fe565b60408051601f198184030181529190528051602090910120901c92915050565b5080546000825590600052602060002090810190611ad89190611adb565b50565b5b80821115611af05760008155600101611adc565b5090565b80356001600160a01b0381168114611b0b57600080fd5b919050565b600060208284031215611b2257600080fd5b611b2b82611af4565b9392505050565b600060208284031215611b4457600080fd5b5035919050565b60005b83811015611b66578181015183820152602001611b4e565b50506000910152565b602081526000825160c0602084015280518060e0850152611b9881610100860160208501611b4b565b602085015160408501526040850151606085015260608501516080850152608085015160a085015260a0850151151560c0850152610100601f19601f8301168501019250505092915050565b634e487b7160e01b600052604160045260246000fd5b600082601f830112611c0b57600080fd5b813567ffffffffffffffff811115611c2557611c25611be4565b604051601f8201601f19908116603f0116810167ffffffffffffffff81118282101715611c5457611c54611be4565b604052818152838201602001851015611c6c57600080fd5b816020850160208301376000918101602001919091529392505050565b60008060008060808587031215611c9f57600080fd5b843567ffffffffffffffff811115611cb657600080fd5b611cc287828801611bfa565b97602087013597506040870135966060013595509350505050565b60008060408385031215611cf057600080fd5b82359150611d0060208401611af4565b90509250929050565b600080600060608486031215611d1e57600080fd5b83359250602084013567ffffffffffffffff811115611d3c57600080fd5b611d4886828701611bfa565b925050611d5760408501611af4565b90509250925092565b602080825282518282018190526000918401906040840190835b81811015611da15783516001600160a01b0316835260209384019390920191600101611d7a565b509095945050505050565b60008060408385031215611dbf57600080fd5b82359150602083013567ffffffffffffffff811115611ddd57600080fd5b611de985828601611bfa565b9150509250929050565b60008060408385031215611e0657600080fd5b50508035926020909101359150565b6000806000806101608587031215611e2c57600080fd5b611e3585611af4565b935060208501359250604085013591506101608501861015611e5657600080fd5b509194909350909160600190565b600080600060608486031215611e7957600080fd5b8335925060208401359150611d5760408501611af4565b600181811c90821680611ea457607f821691505b602082108103611ec457634e487b7160e01b600052602260045260246000fd5b50919050565b601f821115611f1457806000526020600020601f840160051c81016020851015611ef15750805b601f840160051c820191505b81811015611f115760008155600101611efd565b50505b505050565b815167ffffffffffffffff811115611f3357611f33611be4565b611f4781611f418454611e90565b84611eca565b6020601f821160018114611f7b5760008315611f635750848201515b600019600385901b1c1916600184901b178455611f11565b600084815260208120601f198516915b82811015611fab5787850151825560209485019460019092019101611f8b565b5084821015611fc95786840151600019600387901b60f8161c191681555b50505050600190811b01905550565b634e487b7160e01b600052601160045260246000fd5b60006001820161200057612000611fd8565b5060010190565b8082018082111561055157610551611fd8565b634e487b7160e01b600052603260045260246000fd5b808202811582820484141761055157610551611fd8565b634e487b7160e01b600052601260045260246000fd5b60008261206c5761206c612047565b500490565b6020808252601490820152732330b4b632b2103a379039b2b7321022ba3432b960611b604082015260600190565b8181038181111561055157610551611fd8565b6000826120c1576120c1612047565b500690565b60006101a0820190508782528660208301528560408301528460608301528360808301526101008360a0840137979650505050505050565b60008251612110818460208701611b4b565b919091019291505056fea2646970667358221220da054b8a89d9f478baf72fca2fa54c920ec57477e83b851ede859073f2f16bec64736f6c634300081a0033","linkReferences":{}},"methodIdentifiers":{"addDailyRun(uint256,uint256)":"e96b46d8","addDailyRunOnBehalfOfUser(uint256,uint256,address)":"feeeb7a1","completeChallenge(uint256)":"a7817bbc","createNewChallenge(string,uint256,uint256,uint256)":"5cafbc90","getChallengeDetail(uint256)":"434cba47","getLeaderBoard(uint256)":"bffde480","isParticipant(uint256,address)":"758d9b89","isRealHuman(address)":"3caefbbf","joinChallenge(uint256,string)":"d3ad3e34","joinChallengeOnBehalfOfUser(uint256,string,address)":"a6120196","verifyAndExecute(address,uint256,uint256,uint256[8])":"e9b70553","verifyByUsingCloudData(bytes32,address)":"a962a501"},"id":20}