{
    "abi": [
        {
            "type": "constructor",
            "inputs": [],
            "stateMutability": "nonpayable"
        },
        {
            "type": "function",
            "name": "addDailyRun",
            "inputs": [
                {
                    "name": "challengeId",
                    "type": "uint256",
                    "internalType": "uint256"
                },
                {
                    "name": "distanceKm",
                    "type": "uint256",
                    "internalType": "uint256"
                }
            ],
            "outputs": [],
            "stateMutability": "nonpayable"
        },
        {
            "type": "function",
            "name": "completeChallenge",
            "inputs": [
                {
                    "name": "challengeId",
                    "type": "uint256",
                    "internalType": "uint256"
                }
            ],
            "outputs": [],
            "stateMutability": "nonpayable"
        },
        {
            "type": "function",
            "name": "createNewChallenge",
            "inputs": [
                {
                    "name": "name",
                    "type": "string",
                    "internalType": "string"
                },
                {
                    "name": "stakingAmount",
                    "type": "uint256",
                    "internalType": "uint256"
                },
                {
                    "name": "startTime",
                    "type": "uint256",
                    "internalType": "uint256"
                },
                {
                    "name": "endTime",
                    "type": "uint256",
                    "internalType": "uint256"
                }
            ],
            "outputs": [],
            "stateMutability": "nonpayable"
        },
        {
            "type": "function",
            "name": "getChallengeDetail",
            "inputs": [
                {
                    "name": "challengeId",
                    "type": "uint256",
                    "internalType": "uint256"
                }
            ],
            "outputs": [
                {
                    "name": "",
                    "type": "tuple",
                    "internalType": "struct StakeAndRun.Challenge",
                    "components": [
                        {
                            "name": "name",
                            "type": "string",
                            "internalType": "string"
                        },
                        {
                            "name": "stakingAmount",
                            "type": "uint256",
                            "internalType": "uint256"
                        },
                        {
                            "name": "startTime",
                            "type": "uint256",
                            "internalType": "uint256"
                        },
                        {
                            "name": "endTime",
                            "type": "uint256",
                            "internalType": "uint256"
                        },
                        {
                            "name": "totalStaked",
                            "type": "uint256",
                            "internalType": "uint256"
                        },
                        {
                            "name": "isCompleted",
                            "type": "bool",
                            "internalType": "bool"
                        }
                    ]
                }
            ],
            "stateMutability": "view"
        },
        {
            "type": "function",
            "name": "isParticipant",
            "inputs": [
                {
                    "name": "challengeId",
                    "type": "uint256",
                    "internalType": "uint256"
                },
                {
                    "name": "user",
                    "type": "address",
                    "internalType": "address"
                }
            ],
            "outputs": [
                {
                    "name": "",
                    "type": "bool",
                    "internalType": "bool"
                }
            ],
            "stateMutability": "view"
        },
        {
            "type": "function",
            "name": "joinChallenge",
            "inputs": [
                {
                    "name": "challengeId",
                    "type": "uint256",
                    "internalType": "uint256"
                },
                {
                    "name": "telegramHandler",
                    "type": "string",
                    "internalType": "string"
                }
            ],
            "outputs": [],
            "stateMutability": "payable"
        },
        {
            "type": "event",
            "name": "ChallengeCompleted",
            "inputs": [
                {
                    "name": "challengeId",
                    "type": "uint256",
                    "indexed": false,
                    "internalType": "uint256"
                }
            ],
            "anonymous": false
        },
        {
            "type": "event",
            "name": "DailyRunUploaded",
            "inputs": [
                {
                    "name": "challengeId",
                    "type": "uint256",
                    "indexed": false,
                    "internalType": "uint256"
                },
                {
                    "name": "user",
                    "type": "address",
                    "indexed": false,
                    "internalType": "address"
                },
                {
                    "name": "distance",
                    "type": "uint256",
                    "indexed": false,
                    "internalType": "uint256"
                }
            ],
            "anonymous": false
        },
        {
            "type": "event",
            "name": "NewChallenge",
            "inputs": [
                {
                    "name": "id",
                    "type": "uint256",
                    "indexed": false,
                    "internalType": "uint256"
                },
                {
                    "name": "startTime",
                    "type": "uint256",
                    "indexed": false,
                    "internalType": "uint256"
                },
                {
                    "name": "endTime",
                    "type": "uint256",
                    "indexed": false,
                    "internalType": "uint256"
                }
            ],
            "anonymous": false
        },
        {
            "type": "event",
            "name": "NewUser",
            "inputs": [
                {
                    "name": "challengeId",
                    "type": "uint256",
                    "indexed": false,
                    "internalType": "uint256"
                },
                {
                    "name": "user",
                    "type": "address",
                    "indexed": false,
                    "internalType": "address"
                }
            ],
            "anonymous": false
        }
    ],
    "bytecode": {
        "object": "0x6080604052348015600f57600080fd5b50600080546001600160a01b031916331790556002805460ff191690556114ad8061003b6000396000f3fe6080604052600436106100555760003560e01c8063434cba471461005a5780635cafbc9014610090578063758d9b89146100b2578063a7817bbc146100e2578063d3ad3e3414610102578063e96b46d814610115575b600080fd5b34801561006657600080fd5b5061007a610075366004610ff4565b610135565b604051610087919061100d565b60405180910390f35b34801561009c57600080fd5b506100b06100ab366004611148565b610258565b005b3480156100be57600080fd5b506100d26100cd36600461119c565b61040b565b6040519015158152602001610087565b3480156100ee57600080fd5b506100b06100fd366004610ff4565b610438565b6100b06101103660046111d8565b610a4e565b34801561012157600080fd5b506100b061013036600461121f565b610cf1565b6101706040518060c0016040528060608152602001600081526020016000815260200160008152602001600081526020016000151581525090565b60008281526003602052604090819020815160c0810190925280548290829061019890611241565b80601f01602080910402602001604051908101604052809291908181526020018280546101c490611241565b80156102115780601f106101e657610100808354040283529160200191610211565b820191906000526020600020905b8154815290600101906020018083116101f457829003601f168201915b50505091835250506001820154602082015260028201546040820152600382015460608201526004820154608082015260059091015460ff16151560a09091015292915050565b4282116102b85760405162461bcd60e51b8152602060048201526024808201527f53746172742074696d65206e65656420746f20626520696e20746865206675746044820152633ab9329760e11b60648201526084015b60405180910390fd5b8082106103165760405162461bcd60e51b815260206004820152602660248201527f53746172742074696d65206e65656420746f206265206265666f726520656e64604482015265103a34b6b29760d11b60648201526084016102af565b6040805160c08101825285815260208082018690528183018590526060820184905260006080830181905260a0830181905260015481526003909152919091208151829190819061036790826112ca565b50602082810151600183810191909155604080850151600285015560608086015160038601556080860151600486015560a0909501516005909401805460ff1916941515949094179093555482519081529081018690529081018490527fdde3965ad042df60693f9e2c894f4da932c1c7ccea1c9e3c372a70042efd0c94910160405180910390a1600180549060006103ff8361139f565b91905055505050505050565b60008281526004602090815260408083206001600160a01b038516845290915290205460ff165b92915050565b6000818152600360208190526040909120015442116104995760405162461bcd60e51b815260206004820152601860248201527f4368616c6c656e676520686173206e6f7420656e64656421000000000000000060448201526064016102af565b60065460009067ffffffffffffffff8111156104b7576104b76110a3565b6040519080825280602002602001820160405280156104e0578160200160208202803683370190505b50905060005b6006548110156105535760068181548110610503576105036113b8565b9060005260206000200160009054906101000a90046001600160a01b0316828281518110610533576105336113b8565b6001600160a01b03909216602092830291909101909101526001016104e6565b5060005b81518110156106d15760008381526005602052604081206006805483919085908110610585576105856113b8565b60009182526020808320909101546001600160a01b03168352820192909252604001812060019081015492506105bc9084906113ce565b90505b83518110156106c757600085815260056020526040812060068054839190859081106105ed576105ed6113b8565b60009182526020808320909101546001600160a01b031683528201929092526040019020600101549050808310156106be576000858581518110610633576106336113b8565b6020026020010151905085838151811061064f5761064f6113b8565b6020026020010151868681518110610669576106696113b8565b60200260200101906001600160a01b031690816001600160a01b0316815250508086848151811061069c5761069c6113b8565b60200260200101906001600160a01b031690816001600160a01b031681525050505b506001016105bf565b5050600101610557565b50600082815260036020526040808220815160c081019092528054829082906106f990611241565b80601f016020809104026020016040519081016040528092919081815260200182805461072590611241565b80156107725780601f1061074757610100808354040283529160200191610772565b820191906000526020600020905b81548152906001019060200180831161075557829003601f168201915b5050509183525050600182810154602083015260028301546040830152600383015460608301526004830154608083015260059092015460ff16151560a09091015283519192501015610873576000600a826020015160056107d491906113e1565b6107de919061140e565b9050600080846000815181106107f6576107f66113b8565b60200260200101516001600160a01b03168360405160006040518083038185875af1925050503d8060008114610848576040519150601f19603f3d011682016040523d82523d6000602084013e61084d565b606091505b50915091508161086f5760405162461bcd60e51b81526004016102af90611422565b5050505b600282511115610931576000600a8260200151600361089291906113e1565b61089c919061140e565b9050600080846000815181106108b4576108b46113b8565b60200260200101516001600160a01b03168360405160006040518083038185875af1925050503d8060008114610906576040519150601f19603f3d011682016040523d82523d6000602084013e61090b565b606091505b50915091508161092d5760405162461bcd60e51b81526004016102af90611422565b5050505b6003825111156109ef576000600a8260200151600261095091906113e1565b61095a919061140e565b905060008084600081518110610972576109726113b8565b60200260200101516001600160a01b03168360405160006040518083038185875af1925050503d80600081146109c4576040519150601f19603f3d011682016040523d82523d6000602084013e6109c9565b606091505b5091509150816109eb5760405162461bcd60e51b81526004016102af90611422565b5050505b6040518381527fc61ef8151923bbd8dc5f723ba25f26bb805ef4f9a52c5811df7242872edd2e0b9060200160405180910390a1610a2e60066000610fba565b50506000908152600360205260409020600501805460ff19166001179055565b60018054610a5c9190611450565b8214610aaa5760405162461bcd60e51b815260206004820152601860248201527f4368616c6c656e676520646f6573206e6f74206578697374000000000000000060448201526064016102af565b6000828152600360205260409020600201544210610b0a5760405162461bcd60e51b815260206004820152601c60248201527f4368616c6c656e67652068617320616c7265616479207374617274210000000060448201526064016102af565b600082815260036020526040902060010154341015610b5c5760405162461bcd60e51b815260206004820152600e60248201526d09cdee840cadcdeeaced040cae8d60931b60448201526064016102af565b600082815260046020908152604080832033845290915290205460ff1615610bbe5760405162461bcd60e51b8152602060048201526015602482015274105b1c9958591e4818481c185c9d1a58da5c185b9d605a1b60448201526064016102af565b600082815260046020908152604080832033808552908352818420805460ff1916600117905581516080810183528581528084018590528685526003845282852060020154818401526060810185905286855260058452828520918552925290912081518190610c2e90826112ca565b506020828101516001808401919091556040808501516002850155606090940151600393840155600680548083019091557ff652222313e28459528d920b65115c16c04f3efc82aaedc97be59f3f377c0d3f0180546001600160a01b031916331790556000868152929091529181209091018054349290610cb09084906113ce565b9091555050604080518381523360208201527f82ff713a8585d7b6ad9cfe09df409e3b9a7fe6f712d4a85d5cdc57af76d02b49910160405180910390a15050565b6000828152600360205260409020600201544211610d515760405162461bcd60e51b815260206004820152601a60248201527f4368616c6c656e676520686173206e6f7420737461727465642100000000000060448201526064016102af565b60008281526003602052604090206005015460ff1615610db35760405162461bcd60e51b815260206004820152601760248201527f4368616c6c656e676520697320636f6d706c657465642100000000000000000060448201526064016102af565b610dbd823361040b565b610e095760405162461bcd60e51b815260206004820152601a60248201527f55736572206973206e6f742061207061727469636970616e742100000000000060448201526064016102af565b60018111610e515760405162461bcd60e51b81526020600482015260156024820152744d7573742072756e206174206c6561737420316b6d60581b60448201526064016102af565b6000828152600560209081526040808320338452909152808220815160808101909252805482908290610e8390611241565b80601f0160208091040260200160405190810160405280929190818152602001828054610eaf90611241565b8015610efc5780601f10610ed157610100808354040283529160200191610efc565b820191906000526020600020905b815481529060010190602001808311610edf57829003601f168201915b50505050508152602001600182015481526020016002820154815260200160038201548152505090506000816040015142610f379190611450565b905062019500811115610f5757610f516201518082611463565b60608301525b8282602001818151610f6991906113ce565b9052504260408381019190915280518581523360208201529081018490527f3a41a813cc9897a9b289c048266df2a9058b65f500e07a2ffb3a220bca6908f19060600160405180910390a150505050565b5080546000825590600052602060002090810190610fd89190610fdb565b50565b5b80821115610ff05760008155600101610fdc565b5090565b60006020828403121561100657600080fd5b5035919050565b602081526000825160c0602084015280518060e085015260005b81811015611045576020818401810151610100878401015201611027565b5060006101008286010152602085015160408501526040850151606085015260608501516080850152608085015160a085015260a0850151915061108d60c085018315159052565b601f01601f191692909201610100019392505050565b634e487b7160e01b600052604160045260246000fd5b600082601f8301126110ca57600080fd5b813567ffffffffffffffff8111156110e4576110e46110a3565b604051601f8201601f19908116603f0116810167ffffffffffffffff81118282101715611113576111136110a3565b60405281815283820160200185101561112b57600080fd5b816020850160208301376000918101602001919091529392505050565b6000806000806080858703121561115e57600080fd5b843567ffffffffffffffff81111561117557600080fd5b611181878288016110b9565b97602087013597506040870135966060013595509350505050565b600080604083850312156111af57600080fd5b8235915060208301356001600160a01b03811681146111cd57600080fd5b809150509250929050565b600080604083850312156111eb57600080fd5b82359150602083013567ffffffffffffffff81111561120957600080fd5b611215858286016110b9565b9150509250929050565b6000806040838503121561123257600080fd5b50508035926020909101359150565b600181811c9082168061125557607f821691505b60208210810361127557634e487b7160e01b600052602260045260246000fd5b50919050565b601f8211156112c557806000526020600020601f840160051c810160208510156112a25750805b601f840160051c820191505b818110156112c257600081556001016112ae565b50505b505050565b815167ffffffffffffffff8111156112e4576112e46110a3565b6112f8816112f28454611241565b8461127b565b6020601f82116001811461132c57600083156113145750848201515b600019600385901b1c1916600184901b1784556112c2565b600084815260208120601f198516915b8281101561135c578785015182556020948501946001909201910161133c565b508482101561137a5786840151600019600387901b60f8161c191681555b50505050600190811b01905550565b634e487b7160e01b600052601160045260246000fd5b6000600182016113b1576113b1611389565b5060010190565b634e487b7160e01b600052603260045260246000fd5b8082018082111561043257610432611389565b808202811582820484141761043257610432611389565b634e487b7160e01b600052601260045260246000fd5b60008261141d5761141d6113f8565b500490565b6020808252601490820152732330b4b632b2103a379039b2b7321022ba3432b960611b604082015260600190565b8181038181111561043257610432611389565b600082611472576114726113f8565b50069056fea264697066735822122066b166ac277c1a46b540bb07acd07b80e4f7b4aacc34dcfb135b029e24737ae864736f6c634300081a0033",
        "linkReferences": {}
    },
    "methodIdentifiers": {
        "addDailyRun(uint256,uint256)": "e96b46d8",
        "completeChallenge(uint256)": "a7817bbc",
        "createNewChallenge(string,uint256,uint256,uint256)": "5cafbc90",
        "getChallengeDetail(uint256)": "434cba47",
        "isParticipant(uint256,address)": "758d9b89",
        "joinChallenge(uint256,string)": "d3ad3e34"
    },
    "id": 25
}