{"abi":[{"type":"constructor","inputs":[{"name":"_appId","type":"string","internalType":"string"},{"name":"_action","type":"string","internalType":"string"}],"stateMutability":"nonpayable"},{"type":"function","name":"addDailyRun","inputs":[{"name":"challengeId","type":"uint256","internalType":"uint256"},{"name":"distanceKm","type":"uint256","internalType":"uint256"}],"outputs":[],"stateMutability":"nonpayable"},{"type":"function","name":"addDailyRunOnBehalfOfUser","inputs":[{"name":"challengeId","type":"uint256","internalType":"uint256"},{"name":"distanceKm","type":"uint256","internalType":"uint256"},{"name":"userAdress","type":"address","internalType":"address"}],"outputs":[],"stateMutability":"nonpayable"},{"type":"function","name":"completeChallenge","inputs":[{"name":"challengeId","type":"uint256","internalType":"uint256"}],"outputs":[],"stateMutability":"nonpayable"},{"type":"function","name":"createNewChallenge","inputs":[{"name":"name","type":"string","internalType":"string"},{"name":"stakingAmount","type":"uint256","internalType":"uint256"},{"name":"startTime","type":"uint256","internalType":"uint256"},{"name":"endTime","type":"uint256","internalType":"uint256"}],"outputs":[],"stateMutability":"nonpayable"},{"type":"function","name":"getChallengeDetail","inputs":[{"name":"challengeId","type":"uint256","internalType":"uint256"}],"outputs":[{"name":"","type":"tuple","internalType":"struct StakeAndRun.Challenge","components":[{"name":"name","type":"string","internalType":"string"},{"name":"stakingAmount","type":"uint256","internalType":"uint256"},{"name":"startTime","type":"uint256","internalType":"uint256"},{"name":"endTime","type":"uint256","internalType":"uint256"},{"name":"totalStaked","type":"uint256","internalType":"uint256"},{"name":"isCompleted","type":"bool","internalType":"bool"}]}],"stateMutability":"view"},{"type":"function","name":"getLeaderBoard","inputs":[{"name":"challengeId","type":"uint256","internalType":"uint256"}],"outputs":[{"name":"","type":"address[]","internalType":"address[]"}],"stateMutability":"view"},{"type":"function","name":"isParticipant","inputs":[{"name":"challengeId","type":"uint256","internalType":"uint256"},{"name":"user","type":"address","internalType":"address"}],"outputs":[{"name":"","type":"bool","internalType":"bool"}],"stateMutability":"view"},{"type":"function","name":"joinChallenge","inputs":[{"name":"challengeId","type":"uint256","internalType":"uint256"},{"name":"telegramHandler","type":"string","internalType":"string"}],"outputs":[],"stateMutability":"payable"},{"type":"function","name":"joinChallengeOnBehalfOfUser","inputs":[{"name":"challengeId","type":"uint256","internalType":"uint256"},{"name":"telegramHandler","type":"string","internalType":"string"},{"name":"user","type":"address","internalType":"address"}],"outputs":[],"stateMutability":"payable"},{"type":"function","name":"verifyAndExecute","inputs":[{"name":"signal","type":"address","internalType":"address"},{"name":"root","type":"uint256","internalType":"uint256"},{"name":"nullifierHash","type":"uint256","internalType":"uint256"},{"name":"proof","type":"uint256[8]","internalType":"uint256[8]"}],"outputs":[],"stateMutability":"nonpayable"},{"type":"function","name":"verifyByUsingCloudData","inputs":[{"name":"userHash","type":"bytes32","internalType":"bytes32"},{"name":"user","type":"address","internalType":"address"}],"outputs":[],"stateMutability":"nonpayable"},{"type":"event","name":"ChallengeCompleted","inputs":[{"name":"challengeId","type":"uint256","indexed":false,"internalType":"uint256"}],"anonymous":false},{"type":"event","name":"DailyRunUploaded","inputs":[{"name":"challengeId","type":"uint256","indexed":false,"internalType":"uint256"},{"name":"user","type":"address","indexed":false,"internalType":"address"},{"name":"distance","type":"uint256","indexed":false,"internalType":"uint256"}],"anonymous":false},{"type":"event","name":"NewChallenge","inputs":[{"name":"id","type":"uint256","indexed":false,"internalType":"uint256"},{"name":"startTime","type":"uint256","indexed":false,"internalType":"uint256"},{"name":"endTime","type":"uint256","indexed":false,"internalType":"uint256"}],"anonymous":false},{"type":"event","name":"NewUser","inputs":[{"name":"challengeId","type":"uint256","indexed":false,"internalType":"uint256"},{"name":"user","type":"address","indexed":false,"internalType":"address"}],"anonymous":false},{"type":"error","name":"InvalidNullifier","inputs":[]}],"bytecode":{"object":"0x60e0604052600160c05234801561001557600080fd5b50604051612386380380612386833981016040819052610034916101b5565b600380546001600160a01b031990811633179091556005805460ff1916905560028054909116735fc01da058da238756133c51d4152d32279df90f1790556040516100b2906100a09061008b90859060200161021e565b60408051601f198184030181529190526100bd565b8260405160200161008b92919061023a565b60a052506102609050565b60006008826040516020016100d2919061021e565b60408051601f198184030181529190528051602090910120901c92915050565b634e487b7160e01b600052604160045260246000fd5b60005b8381101561012357818101518382015260200161010b565b50506000910152565b600082601f83011261013d57600080fd5b81516001600160401b03811115610156576101566100f2565b604051601f8201601f19908116603f011681016001600160401b0381118282101715610184576101846100f2565b60405281815283820160200185101561019c57600080fd5b6101ad826020830160208701610108565b949350505050565b600080604083850312156101c857600080fd5b82516001600160401b038111156101de57600080fd5b6101ea8582860161012c565b602085015190935090506001600160401b0381111561020857600080fd5b6102148582860161012c565b9150509250929050565b60008251610230818460208701610108565b9190910192915050565b82815260008251610252816020850160208701610108565b919091016020019392505050565b60805160a05160c0516120f761028f600039600061166e015260006116d00152600061163e01526120f76000f3fe60806040526004361061009c5760003560e01c8063a962a50111610064578063a962a5011461015c578063bffde4801461017c578063d3ad3e34146101a9578063e96b46d8146101bc578063e9b70553146101dc578063feeeb7a1146101fc57600080fd5b8063434cba47146100a15780635cafbc90146100d7578063758d9b89146100f9578063a612019614610129578063a7817bbc1461013c575b600080fd5b3480156100ad57600080fd5b506100c16100bc366004611abd565b61021c565b6040516100ce9190611afa565b60405180910390f35b3480156100e357600080fd5b506100f76100f2366004611c14565b61033f565b005b34801561010557600080fd5b50610119610114366004611c84565b6104f3565b60405190151581526020016100ce565b6100f7610137366004611cb0565b610520565b34801561014857600080fd5b506100f7610157366004611abd565b610671565b34801561016857600080fd5b506100f7610177366004611c84565b610cfa565b34801561018857600080fd5b5061019c610197366004611abd565b610de3565b6040516100ce9190611d07565b6100f76101b7366004611d53565b6110a3565b3480156101c857600080fd5b506100f76101d7366004611d9a565b611349565b3480156101e857600080fd5b506100f76101f7366004611dbc565b61160c565b34801561020857600080fd5b506100f7610217366004611e0b565b611778565b6102576040518060c0016040528060608152602001600081526020016000815260200160008152602001600081526020016000151581525090565b60008281526006602052604090819020815160c0810190925280548290829061027f90611e37565b80601f01602080910402602001604051908101604052809291908181526020018280546102ab90611e37565b80156102f85780601f106102cd576101008083540402835291602001916102f8565b820191906000526020600020905b8154815290600101906020018083116102db57829003601f168201915b50505091835250506001820154602082015260028201546040820152600382015460608201526004820154608082015260059091015460ff16151560a09091015292915050565b42821161039f5760405162461bcd60e51b8152602060048201526024808201527f53746172742074696d65206e65656420746f20626520696e20746865206675746044820152633ab9329760e11b60648201526084015b60405180910390fd5b8082106103fd5760405162461bcd60e51b815260206004820152602660248201527f53746172742074696d65206e65656420746f206265206265666f726520656e64604482015265103a34b6b29760d11b6064820152608401610396565b6040805160c08101825285815260208082018690528183018590526060820184905260006080830181905260a0830181905260045481526006909152919091208151829190819061044e9082611ec0565b50602082810151600183015560408084015160028401556060808501516003850155608085015160048086019190915560a0909501516005909401805460ff191694151594909417909355925483519081529081018690529182018490527fdde3965ad042df60693f9e2c894f4da932c1c7ccea1c9e3c372a70042efd0c94910160405180910390a1600480549060006104e783611f95565b91905055505050505050565b60008281526007602090815260408083206001600160a01b038516845290915290205460ff165b92915050565b60008381526007602090815260408083206001600160a01b038516808552908352818420805460ff19166001179055815160808101835286815280840185905287855260068452828520600201548184015260608101859052878552600984528285209185529252909120815181906105999082611ec0565b506020828101516001838101919091556040808501516002850155606090940151600390930192909255600b80548084019091557f0175b7a638427703f0dbe7bb9bbf987a2551717b34e79f33b5b1008d1fa01db90180546001600160a01b0319166001600160a01b03861617905560008681526006909152918220018054349290610626908490611fae565b9091555050604080518481526001600160a01b03831660208201527f82ff713a8585d7b6ad9cfe09df409e3b9a7fe6f712d4a85d5cdc57af76d02b49910160405180910390a1505050565b60008181526006602052604090206003015442116106d15760405162461bcd60e51b815260206004820152601860248201527f4368616c6c656e676520686173206e6f7420656e6465642100000000000000006044820152606401610396565b600b5460009067ffffffffffffffff8111156106ef576106ef611b6f565b604051908082528060200260200182016040528015610718578160200160208202803683370190505b50905060005b600b5481101561078b57600b818154811061073b5761073b611fc1565b9060005260206000200160009054906101000a90046001600160a01b031682828151811061076b5761076b611fc1565b6001600160a01b039092166020928302919091019091015260010161071e565b5060005b8151811015610909576000838152600960205260408120600b8054839190859081106107bd576107bd611fc1565b60009182526020808320909101546001600160a01b03168352820192909252604001812060019081015492506107f4908490611fae565b90505b83518110156108ff576000858152600960205260408120600b80548391908590811061082557610825611fc1565b60009182526020808320909101546001600160a01b031683528201929092526040019020600101549050808310156108f657600085858151811061086b5761086b611fc1565b6020026020010151905085838151811061088757610887611fc1565b60200260200101518686815181106108a1576108a1611fc1565b60200260200101906001600160a01b031690816001600160a01b031681525050808684815181106108d4576108d4611fc1565b60200260200101906001600160a01b031690816001600160a01b031681525050505b506001016107f7565b505060010161078f565b5060005b815181101561097d576000838152600a60205260409020825183908390811061093857610938611fc1565b60209081029190910181015182546001808201855560009485529290932090920180546001600160a01b0319166001600160a01b03909316929092179091550161090d565b50600082815260066020526040808220815160c081019092528054829082906109a590611e37565b80601f01602080910402602001604051908101604052809291908181526020018280546109d190611e37565b8015610a1e5780601f106109f357610100808354040283529160200191610a1e565b820191906000526020600020905b815481529060010190602001808311610a0157829003601f168201915b5050509183525050600182810154602083015260028301546040830152600383015460608301526004830154608083015260059092015460ff16151560a09091015283519192501015610b1f576000600a82602001516005610a809190611fd7565b610a8a9190612004565b905060008084600081518110610aa257610aa2611fc1565b60200260200101516001600160a01b03168360405160006040518083038185875af1925050503d8060008114610af4576040519150601f19603f3d011682016040523d82523d6000602084013e610af9565b606091505b509150915081610b1b5760405162461bcd60e51b815260040161039690612018565b5050505b600282511115610bdd576000600a82602001516003610b3e9190611fd7565b610b489190612004565b905060008084600081518110610b6057610b60611fc1565b60200260200101516001600160a01b03168360405160006040518083038185875af1925050503d8060008114610bb2576040519150601f19603f3d011682016040523d82523d6000602084013e610bb7565b606091505b509150915081610bd95760405162461bcd60e51b815260040161039690612018565b5050505b600382511115610c9b576000600a82602001516002610bfc9190611fd7565b610c069190612004565b905060008084600081518110610c1e57610c1e611fc1565b60200260200101516001600160a01b03168360405160006040518083038185875af1925050503d8060008114610c70576040519150601f19603f3d011682016040523d82523d6000602084013e610c75565b606091505b509150915081610c975760405162461bcd60e51b815260040161039690612018565b5050505b6040518381527fc61ef8151923bbd8dc5f723ba25f26bb805ef4f9a52c5811df7242872edd2e0b9060200160405180910390a1610cda600b6000611a83565b50506000908152600660205260409020600501805460ff19166001179055565b6002546001600160a01b03163314610d4c5760405162461bcd60e51b81526020600482015260156024820152742737ba103a3432903737b2329037b832b930ba37b960591b6044820152606401610396565b60008281526001602052604090205460ff1615610da45760405162461bcd60e51b8152602060048201526016602482015275082d8e4cac2c8f240d6dcdeee40e8d0d2e640d0c2e6d60531b6044820152606401610396565b6000918252600160208181526040808520805460ff1990811685179091556001600160a01b039094168552600890915290922080549091169091179055565b6000818152600a602052604090205460609015610e64576000828152600a602090815260409182902080548351818402810184019094528084529091830182828015610e5857602002820191906000526020600020905b81546001600160a01b03168152600190910190602001808311610e3a575b50505050509050919050565b600b5460009067ffffffffffffffff811115610e8257610e82611b6f565b604051908082528060200260200182016040528015610eab578160200160208202803683370190505b50905060005b600b54811015610f1e57600b8181548110610ece57610ece611fc1565b9060005260206000200160009054906101000a90046001600160a01b0316828281518110610efe57610efe611fc1565b6001600160a01b0390921660209283029190910190910152600101610eb1565b5060005b815181101561109c576000848152600960205260408120600b805483919085908110610f5057610f50611fc1565b60009182526020808320909101546001600160a01b0316835282019290925260400181206001908101549250610f87908490611fae565b90505b8351811015611092576000868152600960205260408120600b805483919085908110610fb857610fb8611fc1565b60009182526020808320909101546001600160a01b03168352820192909252604001902060010154905080831015611089576000858581518110610ffe57610ffe611fc1565b6020026020010151905085838151811061101a5761101a611fc1565b602002602001015186868151811061103457611034611fc1565b60200260200101906001600160a01b031690816001600160a01b0316815250508086848151811061106757611067611fc1565b60200260200101906001600160a01b031690816001600160a01b031681525050505b50600101610f8a565b5050600101610f22565b5092915050565b60016004546110b29190612046565b82146111005760405162461bcd60e51b815260206004820152601860248201527f4368616c6c656e676520646f6573206e6f7420657869737400000000000000006044820152606401610396565b60008281526006602052604090206002015442106111605760405162461bcd60e51b815260206004820152601c60248201527f4368616c6c656e67652068617320616c726561647920737461727421000000006044820152606401610396565b6000828152600660205260409020600101543410156111b25760405162461bcd60e51b815260206004820152600e60248201526d09cdee840cadcdeeaced040cae8d60931b6044820152606401610396565b600082815260076020908152604080832033845290915290205460ff16156112145760405162461bcd60e51b8152602060048201526015602482015274105b1c9958591e4818481c185c9d1a58da5c185b9d605a1b6044820152606401610396565b600082815260076020908152604080832033808552908352818420805460ff19166001179055815160808101835285815280840185905286855260068452828520600201548184015260608101859052868552600984528285209185529252909120815181906112849082611ec0565b506020828101516001808401919091556040808501516002850155606090940151600390930192909255600b80548084019091557f0175b7a638427703f0dbe7bb9bbf987a2551717b34e79f33b5b1008d1fa01db90180546001600160a01b0319163317905560008581526006909152918220018054349290611308908490611fae565b9091555050604080518381523360208201527f82ff713a8585d7b6ad9cfe09df409e3b9a7fe6f712d4a85d5cdc57af76d02b49910160405180910390a15050565b60008281526006602052604090206002015442116113a95760405162461bcd60e51b815260206004820152601a60248201527f4368616c6c656e676520686173206e6f742073746172746564210000000000006044820152606401610396565b60008281526006602052604090206005015460ff16156114055760405162461bcd60e51b81526020600482015260176024820152764368616c6c656e676520697320636f6d706c657465642160481b6044820152606401610396565b61140f82336104f3565b61145b5760405162461bcd60e51b815260206004820152601a60248201527f55736572206973206e6f742061207061727469636970616e74210000000000006044820152606401610396565b600181116114a35760405162461bcd60e51b81526020600482015260156024820152744d7573742072756e206174206c6561737420316b6d60581b6044820152606401610396565b60008281526009602090815260408083203384529091528082208151608081019092528054829082906114d590611e37565b80601f016020809104026020016040519081016040528092919081815260200182805461150190611e37565b801561154e5780601f106115235761010080835404028352916020019161154e565b820191906000526020600020905b81548152906001019060200180831161153157829003601f168201915b505050505081526020016001820154815260200160028201548152602001600382015481525050905060008160400151426115899190612046565b9050620195008111156115a9576115a36201518082612059565b60608301525b82826020018181516115bb9190611fae565b9052504260408381019190915280518581523360208201529081018490527f3a41a813cc9897a9b289c048266df2a9058b65f500e07a2ffb3a220bca6908f19060600160405180910390a150505050565b60008281526020819052604090205460ff161561163c57604051632ec8265960e11b815260040160405180910390fd5b7f00000000000000000000000000000000000000000000000000000000000000006001600160a01b0316633bc778e3847f00000000000000000000000000000000000000000000000000000000000000006116cd886040516020016116b9919060609190911b6bffffffffffffffffffffffff1916815260140190565b604051602081830303815290604052611a4e565b867f0000000000000000000000000000000000000000000000000000000000000000876040518763ffffffff1660e01b81526004016117119695949392919061206d565b60006040518083038186803b15801561172957600080fd5b505afa15801561173d573d6000803e3d6000fd5b50505060009283525050602081815260408083208054600160ff19918216811790925533855260089093529220805490911690911790555050565b60008381526006602052604090206002015442116117d85760405162461bcd60e51b815260206004820152601a60248201527f4368616c6c656e676520686173206e6f742073746172746564210000000000006044820152606401610396565b60008381526006602052604090206005015460ff16156118345760405162461bcd60e51b81526020600482015260176024820152764368616c6c656e676520697320636f6d706c657465642160481b6044820152606401610396565b61183e83826104f3565b61188a5760405162461bcd60e51b815260206004820152601a60248201527f55736572206973206e6f742061207061727469636970616e74210000000000006044820152606401610396565b600182116118d25760405162461bcd60e51b81526020600482015260156024820152744d7573742072756e206174206c6561737420316b6d60581b6044820152606401610396565b60008381526009602090815260408083206001600160a01b038516845290915280822081516080810190925280548290829061190d90611e37565b80601f016020809104026020016040519081016040528092919081815260200182805461193990611e37565b80156119865780601f1061195b57610100808354040283529160200191611986565b820191906000526020600020905b81548152906001019060200180831161196957829003601f168201915b505050505081526020016001820154815260200160028201548152602001600382015481525050905060008160400151426119c19190612046565b9050620195008111156119e1576119db6201518082612059565b60608301525b83826020018181516119f39190611fae565b9052504260408381019190915280518681526001600160a01b03851660208201529081018590527f3a41a813cc9897a9b289c048266df2a9058b65f500e07a2ffb3a220bca6908f19060600160405180910390a15050505050565b6000600882604051602001611a6391906120a5565b60408051601f198184030181529190528051602090910120901c92915050565b5080546000825590600052602060002090810190611aa19190611aa4565b50565b5b80821115611ab95760008155600101611aa5565b5090565b600060208284031215611acf57600080fd5b5035919050565b60005b83811015611af1578181015183820152602001611ad9565b50506000910152565b602081526000825160c0602084015280518060e0850152611b2381610100860160208501611ad6565b602085015160408501526040850151606085015260608501516080850152608085015160a085015260a0850151151560c0850152610100601f19601f8301168501019250505092915050565b634e487b7160e01b600052604160045260246000fd5b600082601f830112611b9657600080fd5b813567ffffffffffffffff811115611bb057611bb0611b6f565b604051601f8201601f19908116603f0116810167ffffffffffffffff81118282101715611bdf57611bdf611b6f565b604052818152838201602001851015611bf757600080fd5b816020850160208301376000918101602001919091529392505050565b60008060008060808587031215611c2a57600080fd5b843567ffffffffffffffff811115611c4157600080fd5b611c4d87828801611b85565b97602087013597506040870135966060013595509350505050565b80356001600160a01b0381168114611c7f57600080fd5b919050565b60008060408385031215611c9757600080fd5b82359150611ca760208401611c68565b90509250929050565b600080600060608486031215611cc557600080fd5b83359250602084013567ffffffffffffffff811115611ce357600080fd5b611cef86828701611b85565b925050611cfe60408501611c68565b90509250925092565b602080825282518282018190526000918401906040840190835b81811015611d485783516001600160a01b0316835260209384019390920191600101611d21565b509095945050505050565b60008060408385031215611d6657600080fd5b82359150602083013567ffffffffffffffff811115611d8457600080fd5b611d9085828601611b85565b9150509250929050565b60008060408385031215611dad57600080fd5b50508035926020909101359150565b6000806000806101608587031215611dd357600080fd5b611ddc85611c68565b935060208501359250604085013591506101608501861015611dfd57600080fd5b509194909350909160600190565b600080600060608486031215611e2057600080fd5b8335925060208401359150611cfe60408501611c68565b600181811c90821680611e4b57607f821691505b602082108103611e6b57634e487b7160e01b600052602260045260246000fd5b50919050565b601f821115611ebb57806000526020600020601f840160051c81016020851015611e985750805b601f840160051c820191505b81811015611eb85760008155600101611ea4565b50505b505050565b815167ffffffffffffffff811115611eda57611eda611b6f565b611eee81611ee88454611e37565b84611e71565b6020601f821160018114611f225760008315611f0a5750848201515b600019600385901b1c1916600184901b178455611eb8565b600084815260208120601f198516915b82811015611f525787850151825560209485019460019092019101611f32565b5084821015611f705786840151600019600387901b60f8161c191681555b50505050600190811b01905550565b634e487b7160e01b600052601160045260246000fd5b600060018201611fa757611fa7611f7f565b5060010190565b8082018082111561051a5761051a611f7f565b634e487b7160e01b600052603260045260246000fd5b808202811582820484141761051a5761051a611f7f565b634e487b7160e01b600052601260045260246000fd5b60008261201357612013611fee565b500490565b6020808252601490820152732330b4b632b2103a379039b2b7321022ba3432b960611b604082015260600190565b8181038181111561051a5761051a611f7f565b60008261206857612068611fee565b500690565b60006101a0820190508782528660208301528560408301528460608301528360808301526101008360a0840137979650505050505050565b600082516120b7818460208701611ad6565b919091019291505056fea26469706673582212201a6b96b9eb5e7151faf50a0827caaaa46e9e5f50a770d3f9676b4742b07b2fe364736f6c634300081a0033","linkReferences":{}},"methodIdentifiers":{"addDailyRun(uint256,uint256)":"e96b46d8","addDailyRunOnBehalfOfUser(uint256,uint256,address)":"feeeb7a1","completeChallenge(uint256)":"a7817bbc","createNewChallenge(string,uint256,uint256,uint256)":"5cafbc90","getChallengeDetail(uint256)":"434cba47","getLeaderBoard(uint256)":"bffde480","isParticipant(uint256,address)":"758d9b89","joinChallenge(uint256,string)":"d3ad3e34","joinChallengeOnBehalfOfUser(uint256,string,address)":"a6120196","verifyAndExecute(address,uint256,uint256,uint256[8])":"e9b70553","verifyByUsingCloudData(bytes32,address)":"a962a501"},"id":25}