{"abi":[{"type":"constructor","inputs":[{"name":"_appId","type":"string","internalType":"string"},{"name":"_action","type":"string","internalType":"string"}],"stateMutability":"nonpayable"},{"type":"function","name":"addDailyRun","inputs":[{"name":"challengeId","type":"uint256","internalType":"uint256"},{"name":"distanceKm","type":"uint256","internalType":"uint256"}],"outputs":[],"stateMutability":"nonpayable"},{"type":"function","name":"completeChallenge","inputs":[{"name":"challengeId","type":"uint256","internalType":"uint256"}],"outputs":[],"stateMutability":"nonpayable"},{"type":"function","name":"createNewChallenge","inputs":[{"name":"name","type":"string","internalType":"string"},{"name":"stakingAmount","type":"uint256","internalType":"uint256"},{"name":"startTime","type":"uint256","internalType":"uint256"},{"name":"endTime","type":"uint256","internalType":"uint256"}],"outputs":[],"stateMutability":"nonpayable"},{"type":"function","name":"getChallengeDetail","inputs":[{"name":"challengeId","type":"uint256","internalType":"uint256"}],"outputs":[{"name":"","type":"tuple","internalType":"struct StakeAndRun.Challenge","components":[{"name":"name","type":"string","internalType":"string"},{"name":"stakingAmount","type":"uint256","internalType":"uint256"},{"name":"startTime","type":"uint256","internalType":"uint256"},{"name":"endTime","type":"uint256","internalType":"uint256"},{"name":"totalStaked","type":"uint256","internalType":"uint256"},{"name":"isCompleted","type":"bool","internalType":"bool"}]}],"stateMutability":"view"},{"type":"function","name":"getLeaderBoard","inputs":[{"name":"challengeId","type":"uint256","internalType":"uint256"}],"outputs":[{"name":"","type":"address[]","internalType":"address[]"}],"stateMutability":"view"},{"type":"function","name":"isParticipant","inputs":[{"name":"challengeId","type":"uint256","internalType":"uint256"},{"name":"user","type":"address","internalType":"address"}],"outputs":[{"name":"","type":"bool","internalType":"bool"}],"stateMutability":"view"},{"type":"function","name":"joinChallenge","inputs":[{"name":"challengeId","type":"uint256","internalType":"uint256"},{"name":"telegramHandler","type":"string","internalType":"string"}],"outputs":[],"stateMutability":"payable"},{"type":"function","name":"joinChallengeOnBehalfOfUser","inputs":[{"name":"challengeId","type":"uint256","internalType":"uint256"},{"name":"telegramHandler","type":"string","internalType":"string"},{"name":"user","type":"address","internalType":"address"}],"outputs":[],"stateMutability":"payable"},{"type":"function","name":"verifyAndExecute","inputs":[{"name":"signal","type":"address","internalType":"address"},{"name":"root","type":"uint256","internalType":"uint256"},{"name":"nullifierHash","type":"uint256","internalType":"uint256"},{"name":"proof","type":"uint256[8]","internalType":"uint256[8]"}],"outputs":[],"stateMutability":"nonpayable"},{"type":"function","name":"verifyByUsingCloudData","inputs":[{"name":"userHash","type":"bytes32","internalType":"bytes32"},{"name":"user","type":"address","internalType":"address"}],"outputs":[],"stateMutability":"nonpayable"},{"type":"event","name":"ChallengeCompleted","inputs":[{"name":"challengeId","type":"uint256","indexed":false,"internalType":"uint256"}],"anonymous":false},{"type":"event","name":"DailyRunUploaded","inputs":[{"name":"challengeId","type":"uint256","indexed":false,"internalType":"uint256"},{"name":"user","type":"address","indexed":false,"internalType":"address"},{"name":"distance","type":"uint256","indexed":false,"internalType":"uint256"}],"anonymous":false},{"type":"event","name":"NewChallenge","inputs":[{"name":"id","type":"uint256","indexed":false,"internalType":"uint256"},{"name":"startTime","type":"uint256","indexed":false,"internalType":"uint256"},{"name":"endTime","type":"uint256","indexed":false,"internalType":"uint256"}],"anonymous":false},{"type":"event","name":"NewUser","inputs":[{"name":"challengeId","type":"uint256","indexed":false,"internalType":"uint256"},{"name":"user","type":"address","indexed":false,"internalType":"address"}],"anonymous":false},{"type":"error","name":"InvalidNullifier","inputs":[]}],"bytecode":{"object":"0x60e0604052600160c05234801561001557600080fd5b5060405161205f38038061205f833981016040819052610034916101b5565b600380546001600160a01b031990811633179091556005805460ff1916905560028054909116735fc01da058da238756133c51d4152d32279df90f1790556040516100b2906100a09061008b90859060200161021e565b60408051601f198184030181529190526100bd565b8260405160200161008b92919061023a565b60a052506102609050565b60006008826040516020016100d2919061021e565b60408051601f198184030181529190528051602090910120901c92915050565b634e487b7160e01b600052604160045260246000fd5b60005b8381101561012357818101518382015260200161010b565b50506000910152565b600082601f83011261013d57600080fd5b81516001600160401b03811115610156576101566100f2565b604051601f8201601f19908116603f011681016001600160401b0381118282101715610184576101846100f2565b60405281815283820160200185101561019c57600080fd5b6101ad826020830160208701610108565b949350505050565b600080604083850312156101c857600080fd5b82516001600160401b038111156101de57600080fd5b6101ea8582860161012c565b602085015190935090506001600160401b0381111561020857600080fd5b6102148582860161012c565b9150509250929050565b60008251610230818460208701610108565b9190910192915050565b82815260008251610252816020850160208701610108565b919091016020019392505050565b60805160a05160c051611dd061028f6000396000611649015260006116ab015260006116190152611dd06000f3fe6080604052600436106100915760003560e01c8063a962a50111610059578063a962a50114610151578063bffde48014610171578063d3ad3e341461019e578063e96b46d8146101b1578063e9b70553146101d157600080fd5b8063434cba47146100965780635cafbc90146100cc578063758d9b89146100ee578063a61201961461011e578063a7817bbc14610131575b600080fd5b3480156100a257600080fd5b506100b66100b13660046117c2565b6101f1565b6040516100c391906117ff565b60405180910390f35b3480156100d857600080fd5b506100ec6100e7366004611919565b610314565b005b3480156100fa57600080fd5b5061010e610109366004611989565b6104c8565b60405190151581526020016100c3565b6100ec61012c3660046119b5565b6104f5565b34801561013d57600080fd5b506100ec61014c3660046117c2565b610646565b34801561015d57600080fd5b506100ec61016c366004611989565b610ccf565b34801561017d57600080fd5b5061019161018c3660046117c2565b610db8565b6040516100c39190611a0c565b6100ec6101ac366004611a58565b611078565b3480156101bd57600080fd5b506100ec6101cc366004611a9f565b61131e565b3480156101dd57600080fd5b506100ec6101ec366004611ac1565b6115e7565b61022c6040518060c0016040528060608152602001600081526020016000815260200160008152602001600081526020016000151581525090565b60008281526006602052604090819020815160c0810190925280548290829061025490611b10565b80601f016020809104026020016040519081016040528092919081815260200182805461028090611b10565b80156102cd5780601f106102a2576101008083540402835291602001916102cd565b820191906000526020600020905b8154815290600101906020018083116102b057829003601f168201915b50505091835250506001820154602082015260028201546040820152600382015460608201526004820154608082015260059091015460ff16151560a09091015292915050565b4282116103745760405162461bcd60e51b8152602060048201526024808201527f53746172742074696d65206e65656420746f20626520696e20746865206675746044820152633ab9329760e11b60648201526084015b60405180910390fd5b8082106103d25760405162461bcd60e51b815260206004820152602660248201527f53746172742074696d65206e65656420746f206265206265666f726520656e64604482015265103a34b6b29760d11b606482015260840161036b565b6040805160c08101825285815260208082018690528183018590526060820184905260006080830181905260a083018190526004548152600690915291909120815182919081906104239082611b99565b50602082810151600183015560408084015160028401556060808501516003850155608085015160048086019190915560a0909501516005909401805460ff191694151594909417909355925483519081529081018690529182018490527fdde3965ad042df60693f9e2c894f4da932c1c7ccea1c9e3c372a70042efd0c94910160405180910390a1600480549060006104bc83611c6e565b91905055505050505050565b60008281526007602090815260408083206001600160a01b038516845290915290205460ff165b92915050565b60008381526007602090815260408083206001600160a01b038516808552908352818420805460ff191660011790558151608081018352868152808401859052878552600684528285206002015481840152606081018590528785526009845282852091855292529091208151819061056e9082611b99565b506020828101516001838101919091556040808501516002850155606090940151600390930192909255600b80548084019091557f0175b7a638427703f0dbe7bb9bbf987a2551717b34e79f33b5b1008d1fa01db90180546001600160a01b0319166001600160a01b038616179055600086815260069091529182200180543492906105fb908490611c87565b9091555050604080518481526001600160a01b03831660208201527f82ff713a8585d7b6ad9cfe09df409e3b9a7fe6f712d4a85d5cdc57af76d02b49910160405180910390a1505050565b60008181526006602052604090206003015442116106a65760405162461bcd60e51b815260206004820152601860248201527f4368616c6c656e676520686173206e6f7420656e646564210000000000000000604482015260640161036b565b600b5460009067ffffffffffffffff8111156106c4576106c4611874565b6040519080825280602002602001820160405280156106ed578160200160208202803683370190505b50905060005b600b5481101561076057600b818154811061071057610710611c9a565b9060005260206000200160009054906101000a90046001600160a01b031682828151811061074057610740611c9a565b6001600160a01b03909216602092830291909101909101526001016106f3565b5060005b81518110156108de576000838152600960205260408120600b80548391908590811061079257610792611c9a565b60009182526020808320909101546001600160a01b03168352820192909252604001812060019081015492506107c9908490611c87565b90505b83518110156108d4576000858152600960205260408120600b8054839190859081106107fa576107fa611c9a565b60009182526020808320909101546001600160a01b031683528201929092526040019020600101549050808310156108cb57600085858151811061084057610840611c9a565b6020026020010151905085838151811061085c5761085c611c9a565b602002602001015186868151811061087657610876611c9a565b60200260200101906001600160a01b031690816001600160a01b031681525050808684815181106108a9576108a9611c9a565b60200260200101906001600160a01b031690816001600160a01b031681525050505b506001016107cc565b5050600101610764565b5060005b8151811015610952576000838152600a60205260409020825183908390811061090d5761090d611c9a565b60209081029190910181015182546001808201855560009485529290932090920180546001600160a01b0319166001600160a01b0390931692909217909155016108e2565b50600082815260066020526040808220815160c0810190925280548290829061097a90611b10565b80601f01602080910402602001604051908101604052809291908181526020018280546109a690611b10565b80156109f35780601f106109c8576101008083540402835291602001916109f3565b820191906000526020600020905b8154815290600101906020018083116109d657829003601f168201915b5050509183525050600182810154602083015260028301546040830152600383015460608301526004830154608083015260059092015460ff16151560a09091015283519192501015610af4576000600a82602001516005610a559190611cb0565b610a5f9190611cdd565b905060008084600081518110610a7757610a77611c9a565b60200260200101516001600160a01b03168360405160006040518083038185875af1925050503d8060008114610ac9576040519150601f19603f3d011682016040523d82523d6000602084013e610ace565b606091505b509150915081610af05760405162461bcd60e51b815260040161036b90611cf1565b5050505b600282511115610bb2576000600a82602001516003610b139190611cb0565b610b1d9190611cdd565b905060008084600081518110610b3557610b35611c9a565b60200260200101516001600160a01b03168360405160006040518083038185875af1925050503d8060008114610b87576040519150601f19603f3d011682016040523d82523d6000602084013e610b8c565b606091505b509150915081610bae5760405162461bcd60e51b815260040161036b90611cf1565b5050505b600382511115610c70576000600a82602001516002610bd19190611cb0565b610bdb9190611cdd565b905060008084600081518110610bf357610bf3611c9a565b60200260200101516001600160a01b03168360405160006040518083038185875af1925050503d8060008114610c45576040519150601f19603f3d011682016040523d82523d6000602084013e610c4a565b606091505b509150915081610c6c5760405162461bcd60e51b815260040161036b90611cf1565b5050505b6040518381527fc61ef8151923bbd8dc5f723ba25f26bb805ef4f9a52c5811df7242872edd2e0b9060200160405180910390a1610caf600b6000611788565b50506000908152600660205260409020600501805460ff19166001179055565b6002546001600160a01b03163314610d215760405162461bcd60e51b81526020600482015260156024820152742737ba103a3432903737b2329037b832b930ba37b960591b604482015260640161036b565b60008281526001602052604090205460ff1615610d795760405162461bcd60e51b8152602060048201526016602482015275082d8e4cac2c8f240d6dcdeee40e8d0d2e640d0c2e6d60531b604482015260640161036b565b6000918252600160208181526040808520805460ff1990811685179091556001600160a01b039094168552600890915290922080549091169091179055565b6000818152600a602052604090205460609015610e39576000828152600a602090815260409182902080548351818402810184019094528084529091830182828015610e2d57602002820191906000526020600020905b81546001600160a01b03168152600190910190602001808311610e0f575b50505050509050919050565b600b5460009067ffffffffffffffff811115610e5757610e57611874565b604051908082528060200260200182016040528015610e80578160200160208202803683370190505b50905060005b600b54811015610ef357600b8181548110610ea357610ea3611c9a565b9060005260206000200160009054906101000a90046001600160a01b0316828281518110610ed357610ed3611c9a565b6001600160a01b0390921660209283029190910190910152600101610e86565b5060005b8151811015611071576000848152600960205260408120600b805483919085908110610f2557610f25611c9a565b60009182526020808320909101546001600160a01b0316835282019290925260400181206001908101549250610f5c908490611c87565b90505b8351811015611067576000868152600960205260408120600b805483919085908110610f8d57610f8d611c9a565b60009182526020808320909101546001600160a01b0316835282019290925260400190206001015490508083101561105e576000858581518110610fd357610fd3611c9a565b60200260200101519050858381518110610fef57610fef611c9a565b602002602001015186868151811061100957611009611c9a565b60200260200101906001600160a01b031690816001600160a01b0316815250508086848151811061103c5761103c611c9a565b60200260200101906001600160a01b031690816001600160a01b031681525050505b50600101610f5f565b5050600101610ef7565b5092915050565b60016004546110879190611d1f565b82146110d55760405162461bcd60e51b815260206004820152601860248201527f4368616c6c656e676520646f6573206e6f742065786973740000000000000000604482015260640161036b565b60008281526006602052604090206002015442106111355760405162461bcd60e51b815260206004820152601c60248201527f4368616c6c656e67652068617320616c72656164792073746172742100000000604482015260640161036b565b6000828152600660205260409020600101543410156111875760405162461bcd60e51b815260206004820152600e60248201526d09cdee840cadcdeeaced040cae8d60931b604482015260640161036b565b600082815260076020908152604080832033845290915290205460ff16156111e95760405162461bcd60e51b8152602060048201526015602482015274105b1c9958591e4818481c185c9d1a58da5c185b9d605a1b604482015260640161036b565b600082815260076020908152604080832033808552908352818420805460ff19166001179055815160808101835285815280840185905286855260068452828520600201548184015260608101859052868552600984528285209185529252909120815181906112599082611b99565b506020828101516001808401919091556040808501516002850155606090940151600390930192909255600b80548084019091557f0175b7a638427703f0dbe7bb9bbf987a2551717b34e79f33b5b1008d1fa01db90180546001600160a01b03191633179055600085815260069091529182200180543492906112dd908490611c87565b9091555050604080518381523360208201527f82ff713a8585d7b6ad9cfe09df409e3b9a7fe6f712d4a85d5cdc57af76d02b49910160405180910390a15050565b600082815260066020526040902060020154421161137e5760405162461bcd60e51b815260206004820152601a60248201527f4368616c6c656e676520686173206e6f74207374617274656421000000000000604482015260640161036b565b60008281526006602052604090206005015460ff16156113e05760405162461bcd60e51b815260206004820152601760248201527f4368616c6c656e676520697320636f6d706c6574656421000000000000000000604482015260640161036b565b6113ea82336104c8565b6114365760405162461bcd60e51b815260206004820152601a60248201527f55736572206973206e6f742061207061727469636970616e7421000000000000604482015260640161036b565b6001811161147e5760405162461bcd60e51b81526020600482015260156024820152744d7573742072756e206174206c6561737420316b6d60581b604482015260640161036b565b60008281526009602090815260408083203384529091528082208151608081019092528054829082906114b090611b10565b80601f01602080910402602001604051908101604052809291908181526020018280546114dc90611b10565b80156115295780601f106114fe57610100808354040283529160200191611529565b820191906000526020600020905b81548152906001019060200180831161150c57829003601f168201915b505050505081526020016001820154815260200160028201548152602001600382015481525050905060008160400151426115649190611d1f565b9050620195008111156115845761157e6201518082611d32565b60608301525b82826020018181516115969190611c87565b9052504260408381019190915280518581523360208201529081018490527f3a41a813cc9897a9b289c048266df2a9058b65f500e07a2ffb3a220bca6908f19060600160405180910390a150505050565b60008281526020819052604090205460ff161561161757604051632ec8265960e11b815260040160405180910390fd5b7f00000000000000000000000000000000000000000000000000000000000000006001600160a01b0316633bc778e3847f00000000000000000000000000000000000000000000000000000000000000006116a888604051602001611694919060609190911b6bffffffffffffffffffffffff1916815260140190565b604051602081830303815290604052611753565b867f0000000000000000000000000000000000000000000000000000000000000000876040518763ffffffff1660e01b81526004016116ec96959493929190611d46565b60006040518083038186803b15801561170457600080fd5b505afa158015611718573d6000803e3d6000fd5b50505060009283525050602081815260408083208054600160ff19918216811790925533855260089093529220805490911690911790555050565b60006008826040516020016117689190611d7e565b60408051601f198184030181529190528051602090910120901c92915050565b50805460008255906000526020600020908101906117a691906117a9565b50565b5b808211156117be57600081556001016117aa565b5090565b6000602082840312156117d457600080fd5b5035919050565b60005b838110156117f65781810151838201526020016117de565b50506000910152565b602081526000825160c0602084015280518060e0850152611828816101008601602085016117db565b602085015160408501526040850151606085015260608501516080850152608085015160a085015260a0850151151560c0850152610100601f19601f8301168501019250505092915050565b634e487b7160e01b600052604160045260246000fd5b600082601f83011261189b57600080fd5b813567ffffffffffffffff8111156118b5576118b5611874565b604051601f8201601f19908116603f0116810167ffffffffffffffff811182821017156118e4576118e4611874565b6040528181528382016020018510156118fc57600080fd5b816020850160208301376000918101602001919091529392505050565b6000806000806080858703121561192f57600080fd5b843567ffffffffffffffff81111561194657600080fd5b6119528782880161188a565b97602087013597506040870135966060013595509350505050565b80356001600160a01b038116811461198457600080fd5b919050565b6000806040838503121561199c57600080fd5b823591506119ac6020840161196d565b90509250929050565b6000806000606084860312156119ca57600080fd5b83359250602084013567ffffffffffffffff8111156119e857600080fd5b6119f48682870161188a565b925050611a036040850161196d565b90509250925092565b602080825282518282018190526000918401906040840190835b81811015611a4d5783516001600160a01b0316835260209384019390920191600101611a26565b509095945050505050565b60008060408385031215611a6b57600080fd5b82359150602083013567ffffffffffffffff811115611a8957600080fd5b611a958582860161188a565b9150509250929050565b60008060408385031215611ab257600080fd5b50508035926020909101359150565b6000806000806101608587031215611ad857600080fd5b611ae18561196d565b935060208501359250604085013591506101608501861015611b0257600080fd5b509194909350909160600190565b600181811c90821680611b2457607f821691505b602082108103611b4457634e487b7160e01b600052602260045260246000fd5b50919050565b601f821115611b9457806000526020600020601f840160051c81016020851015611b715750805b601f840160051c820191505b81811015611b915760008155600101611b7d565b50505b505050565b815167ffffffffffffffff811115611bb357611bb3611874565b611bc781611bc18454611b10565b84611b4a565b6020601f821160018114611bfb5760008315611be35750848201515b600019600385901b1c1916600184901b178455611b91565b600084815260208120601f198516915b82811015611c2b5787850151825560209485019460019092019101611c0b565b5084821015611c495786840151600019600387901b60f8161c191681555b50505050600190811b01905550565b634e487b7160e01b600052601160045260246000fd5b600060018201611c8057611c80611c58565b5060010190565b808201808211156104ef576104ef611c58565b634e487b7160e01b600052603260045260246000fd5b80820281158282048414176104ef576104ef611c58565b634e487b7160e01b600052601260045260246000fd5b600082611cec57611cec611cc7565b500490565b6020808252601490820152732330b4b632b2103a379039b2b7321022ba3432b960611b604082015260600190565b818103818111156104ef576104ef611c58565b600082611d4157611d41611cc7565b500690565b60006101a0820190508782528660208301528560408301528460608301528360808301526101008360a0840137979650505050505050565b60008251611d908184602087016117db565b919091019291505056fea2646970667358221220b2eaac1a000fc238131bd341888a1ee88e80546b621d1604626e6e2c1804bf4364736f6c634300081a0033","linkReferences":{}},"methodIdentifiers":{"addDailyRun(uint256,uint256)":"e96b46d8","completeChallenge(uint256)":"a7817bbc","createNewChallenge(string,uint256,uint256,uint256)":"5cafbc90","getChallengeDetail(uint256)":"434cba47","getLeaderBoard(uint256)":"bffde480","isParticipant(uint256,address)":"758d9b89","joinChallenge(uint256,string)":"d3ad3e34","joinChallengeOnBehalfOfUser(uint256,string,address)":"a6120196","verifyAndExecute(address,uint256,uint256,uint256[8])":"e9b70553","verifyByUsingCloudData(bytes32,address)":"a962a501"},"id":25}