{"abi":[{"type":"constructor","inputs":[{"name":"_appId","type":"string","internalType":"string"},{"name":"_action","type":"string","internalType":"string"}],"stateMutability":"nonpayable"},{"type":"function","name":"addDailyRun","inputs":[{"name":"challengeId","type":"uint256","internalType":"uint256"},{"name":"distanceKm","type":"uint256","internalType":"uint256"}],"outputs":[],"stateMutability":"nonpayable"},{"type":"function","name":"completeChallenge","inputs":[{"name":"challengeId","type":"uint256","internalType":"uint256"}],"outputs":[],"stateMutability":"nonpayable"},{"type":"function","name":"createNewChallenge","inputs":[{"name":"name","type":"string","internalType":"string"},{"name":"stakingAmount","type":"uint256","internalType":"uint256"},{"name":"startTime","type":"uint256","internalType":"uint256"},{"name":"endTime","type":"uint256","internalType":"uint256"}],"outputs":[],"stateMutability":"nonpayable"},{"type":"function","name":"getChallengeDetail","inputs":[{"name":"challengeId","type":"uint256","internalType":"uint256"}],"outputs":[{"name":"","type":"tuple","internalType":"struct StakeAndRun.Challenge","components":[{"name":"name","type":"string","internalType":"string"},{"name":"stakingAmount","type":"uint256","internalType":"uint256"},{"name":"startTime","type":"uint256","internalType":"uint256"},{"name":"endTime","type":"uint256","internalType":"uint256"},{"name":"totalStaked","type":"uint256","internalType":"uint256"},{"name":"isCompleted","type":"bool","internalType":"bool"}]}],"stateMutability":"view"},{"type":"function","name":"getLeaderBoard","inputs":[{"name":"challengeId","type":"uint256","internalType":"uint256"}],"outputs":[{"name":"","type":"address[]","internalType":"address[]"}],"stateMutability":"view"},{"type":"function","name":"isParticipant","inputs":[{"name":"challengeId","type":"uint256","internalType":"uint256"},{"name":"user","type":"address","internalType":"address"}],"outputs":[{"name":"","type":"bool","internalType":"bool"}],"stateMutability":"view"},{"type":"function","name":"joinChallenge","inputs":[{"name":"challengeId","type":"uint256","internalType":"uint256"},{"name":"telegramHandler","type":"string","internalType":"string"}],"outputs":[],"stateMutability":"payable"},{"type":"function","name":"verifyAndExecute","inputs":[{"name":"signal","type":"address","internalType":"address"},{"name":"root","type":"uint256","internalType":"uint256"},{"name":"nullifierHash","type":"uint256","internalType":"uint256"},{"name":"proof","type":"uint256[8]","internalType":"uint256[8]"}],"outputs":[],"stateMutability":"nonpayable"},{"type":"event","name":"ChallengeCompleted","inputs":[{"name":"challengeId","type":"uint256","indexed":false,"internalType":"uint256"}],"anonymous":false},{"type":"event","name":"DailyRunUploaded","inputs":[{"name":"challengeId","type":"uint256","indexed":false,"internalType":"uint256"},{"name":"user","type":"address","indexed":false,"internalType":"address"},{"name":"distance","type":"uint256","indexed":false,"internalType":"uint256"}],"anonymous":false},{"type":"event","name":"NewChallenge","inputs":[{"name":"id","type":"uint256","indexed":false,"internalType":"uint256"},{"name":"startTime","type":"uint256","indexed":false,"internalType":"uint256"},{"name":"endTime","type":"uint256","indexed":false,"internalType":"uint256"}],"anonymous":false},{"type":"event","name":"NewUser","inputs":[{"name":"challengeId","type":"uint256","indexed":false,"internalType":"uint256"},{"name":"user","type":"address","indexed":false,"internalType":"address"}],"anonymous":false},{"type":"error","name":"InvalidNullifier","inputs":[]}],"bytecode":{"object":"0x60e0604052600160c05234801561001557600080fd5b50604051611d63380380611d6383398101604081905261003491610193565b600180546001600160a01b031916331790556003805460ff191690556040516100909061007e906100699085906020016101fc565b60408051601f1981840301815291905261009b565b82604051602001610069929190610218565b60a0525061023e9050565b60006008826040516020016100b091906101fc565b60408051601f198184030181529190528051602090910120901c92915050565b634e487b7160e01b600052604160045260246000fd5b60005b838110156101015781810151838201526020016100e9565b50506000910152565b600082601f83011261011b57600080fd5b81516001600160401b03811115610134576101346100d0565b604051601f8201601f19908116603f011681016001600160401b0381118282101715610162576101626100d0565b60405281815283820160200185101561017a57600080fd5b61018b8260208301602087016100e6565b949350505050565b600080604083850312156101a657600080fd5b82516001600160401b038111156101bc57600080fd5b6101c88582860161010a565b602085015190935090506001600160401b038111156101e657600080fd5b6101f28582860161010a565b9150509250929050565b6000825161020e8184602087016100e6565b9190910192915050565b828152600082516102308160208501602087016100e6565b919091016020019392505050565b60805160a05160c051611af661026d60003960006113c601526000611428015260006113960152611af66000f3fe60806040526004361061007b5760003560e01c8063bffde4801161004e578063bffde48014610128578063d3ad3e3414610155578063e96b46d814610168578063e9b705531461018857600080fd5b8063434cba47146100805780635cafbc90146100b6578063758d9b89146100d8578063a7817bbc14610108575b600080fd5b34801561008c57600080fd5b506100a061009b36600461153f565b6101a8565b6040516100ad919061157c565b60405180910390f35b3480156100c257600080fd5b506100d66100d1366004611696565b6102cb565b005b3480156100e457600080fd5b506100f86100f3366004611706565b61047f565b60405190151581526020016100ad565b34801561011457600080fd5b506100d661012336600461153f565b6104ac565b34801561013457600080fd5b5061014861014336600461153f565b610b35565b6040516100ad9190611732565b6100d661016336600461177e565b610df5565b34801561017457600080fd5b506100d66101833660046117c5565b61109b565b34801561019457600080fd5b506100d66101a33660046117e7565b611364565b6101e36040518060c0016040528060608152602001600081526020016000815260200160008152602001600081526020016000151581525090565b60008281526004602052604090819020815160c0810190925280548290829061020b90611836565b80601f016020809104026020016040519081016040528092919081815260200182805461023790611836565b80156102845780601f1061025957610100808354040283529160200191610284565b820191906000526020600020905b81548152906001019060200180831161026757829003601f168201915b50505091835250506001820154602082015260028201546040820152600382015460608201526004820154608082015260059091015460ff16151560a09091015292915050565b42821161032b5760405162461bcd60e51b8152602060048201526024808201527f53746172742074696d65206e65656420746f20626520696e20746865206675746044820152633ab9329760e11b60648201526084015b60405180910390fd5b8082106103895760405162461bcd60e51b815260206004820152602660248201527f53746172742074696d65206e65656420746f206265206265666f726520656e64604482015265103a34b6b29760d11b6064820152608401610322565b6040805160c08101825285815260208082018690528183018590526060820184905260006080830181905260a083018190526002548152600490915291909120815182919081906103da90826118bf565b50602082810151600183015560408084015160028085019190915560608086015160038601556080860151600486015560a0909501516005909401805460ff191694151594909417909355915482519081529081018690529081018490527fdde3965ad042df60693f9e2c894f4da932c1c7ccea1c9e3c372a70042efd0c94910160405180910390a16002805490600061047383611994565b91905055505050505050565b60008281526005602090815260408083206001600160a01b038516845290915290205460ff165b92915050565b600081815260046020526040902060030154421161050c5760405162461bcd60e51b815260206004820152601860248201527f4368616c6c656e676520686173206e6f7420656e6465642100000000000000006044820152606401610322565b60095460009067ffffffffffffffff81111561052a5761052a6115f1565b604051908082528060200260200182016040528015610553578160200160208202803683370190505b50905060005b6009548110156105c65760098181548110610576576105766119ad565b9060005260206000200160009054906101000a90046001600160a01b03168282815181106105a6576105a66119ad565b6001600160a01b0390921660209283029190910190910152600101610559565b5060005b815181101561074457600083815260076020526040812060098054839190859081106105f8576105f86119ad565b60009182526020808320909101546001600160a01b031683528201929092526040018120600190810154925061062f9084906119c3565b90505b835181101561073a5760008581526007602052604081206009805483919085908110610660576106606119ad565b60009182526020808320909101546001600160a01b031683528201929092526040019020600101549050808310156107315760008585815181106106a6576106a66119ad565b602002602001015190508583815181106106c2576106c26119ad565b60200260200101518686815181106106dc576106dc6119ad565b60200260200101906001600160a01b031690816001600160a01b0316815250508086848151811061070f5761070f6119ad565b60200260200101906001600160a01b031690816001600160a01b031681525050505b50600101610632565b50506001016105ca565b5060005b81518110156107b85760008381526008602052604090208251839083908110610773576107736119ad565b60209081029190910181015182546001808201855560009485529290932090920180546001600160a01b0319166001600160a01b039093169290921790915501610748565b50600082815260046020526040808220815160c081019092528054829082906107e090611836565b80601f016020809104026020016040519081016040528092919081815260200182805461080c90611836565b80156108595780601f1061082e57610100808354040283529160200191610859565b820191906000526020600020905b81548152906001019060200180831161083c57829003601f168201915b5050509183525050600182810154602083015260028301546040830152600383015460608301526004830154608083015260059092015460ff16151560a0909101528351919250101561095a576000600a826020015160056108bb91906119d6565b6108c59190611a03565b9050600080846000815181106108dd576108dd6119ad565b60200260200101516001600160a01b03168360405160006040518083038185875af1925050503d806000811461092f576040519150601f19603f3d011682016040523d82523d6000602084013e610934565b606091505b5091509150816109565760405162461bcd60e51b815260040161032290611a17565b5050505b600282511115610a18576000600a8260200151600361097991906119d6565b6109839190611a03565b90506000808460008151811061099b5761099b6119ad565b60200260200101516001600160a01b03168360405160006040518083038185875af1925050503d80600081146109ed576040519150601f19603f3d011682016040523d82523d6000602084013e6109f2565b606091505b509150915081610a145760405162461bcd60e51b815260040161032290611a17565b5050505b600382511115610ad6576000600a82602001516002610a3791906119d6565b610a419190611a03565b905060008084600081518110610a5957610a596119ad565b60200260200101516001600160a01b03168360405160006040518083038185875af1925050503d8060008114610aab576040519150601f19603f3d011682016040523d82523d6000602084013e610ab0565b606091505b509150915081610ad25760405162461bcd60e51b815260040161032290611a17565b5050505b6040518381527fc61ef8151923bbd8dc5f723ba25f26bb805ef4f9a52c5811df7242872edd2e0b9060200160405180910390a1610b1560096000611505565b50506000908152600460205260409020600501805460ff19166001179055565b60008181526008602052604090205460609015610bb65760008281526008602090815260409182902080548351818402810184019094528084529091830182828015610baa57602002820191906000526020600020905b81546001600160a01b03168152600190910190602001808311610b8c575b50505050509050919050565b60095460009067ffffffffffffffff811115610bd457610bd46115f1565b604051908082528060200260200182016040528015610bfd578160200160208202803683370190505b50905060005b600954811015610c705760098181548110610c2057610c206119ad565b9060005260206000200160009054906101000a90046001600160a01b0316828281518110610c5057610c506119ad565b6001600160a01b0390921660209283029190910190910152600101610c03565b5060005b8151811015610dee5760008481526007602052604081206009805483919085908110610ca257610ca26119ad565b60009182526020808320909101546001600160a01b0316835282019290925260400181206001908101549250610cd99084906119c3565b90505b8351811015610de45760008681526007602052604081206009805483919085908110610d0a57610d0a6119ad565b60009182526020808320909101546001600160a01b03168352820192909252604001902060010154905080831015610ddb576000858581518110610d5057610d506119ad565b60200260200101519050858381518110610d6c57610d6c6119ad565b6020026020010151868681518110610d8657610d866119ad565b60200260200101906001600160a01b031690816001600160a01b03168152505080868481518110610db957610db96119ad565b60200260200101906001600160a01b031690816001600160a01b031681525050505b50600101610cdc565b5050600101610c74565b5092915050565b6001600254610e049190611a45565b8214610e525760405162461bcd60e51b815260206004820152601860248201527f4368616c6c656e676520646f6573206e6f7420657869737400000000000000006044820152606401610322565b6000828152600460205260409020600201544210610eb25760405162461bcd60e51b815260206004820152601c60248201527f4368616c6c656e67652068617320616c726561647920737461727421000000006044820152606401610322565b600082815260046020526040902060010154341015610f045760405162461bcd60e51b815260206004820152600e60248201526d09cdee840cadcdeeaced040cae8d60931b6044820152606401610322565b600082815260056020908152604080832033845290915290205460ff1615610f665760405162461bcd60e51b8152602060048201526015602482015274105b1c9958591e4818481c185c9d1a58da5c185b9d605a1b6044820152606401610322565b600082815260056020908152604080832033808552908352818420805460ff1916600117905581516080810183528581528084018590528685526004845282852060020154818401526060810185905286855260078452828520918552925290912081518190610fd690826118bf565b506020828101516001808401919091556040808501516002850155606090940151600390930192909255600980548084019091557f6e1540171b6c0c960b71a7020d9f60077f6af931a8bbf590da0223dacf75c7af0180546001600160a01b031916331790556000858152600490915291822001805434929061105a9084906119c3565b9091555050604080518381523360208201527f82ff713a8585d7b6ad9cfe09df409e3b9a7fe6f712d4a85d5cdc57af76d02b49910160405180910390a15050565b60008281526004602052604090206002015442116110fb5760405162461bcd60e51b815260206004820152601a60248201527f4368616c6c656e676520686173206e6f742073746172746564210000000000006044820152606401610322565b60008281526004602052604090206005015460ff161561115d5760405162461bcd60e51b815260206004820152601760248201527f4368616c6c656e676520697320636f6d706c65746564210000000000000000006044820152606401610322565b611167823361047f565b6111b35760405162461bcd60e51b815260206004820152601a60248201527f55736572206973206e6f742061207061727469636970616e74210000000000006044820152606401610322565b600181116111fb5760405162461bcd60e51b81526020600482015260156024820152744d7573742072756e206174206c6561737420316b6d60581b6044820152606401610322565b600082815260076020908152604080832033845290915280822081516080810190925280548290829061122d90611836565b80601f016020809104026020016040519081016040528092919081815260200182805461125990611836565b80156112a65780601f1061127b576101008083540402835291602001916112a6565b820191906000526020600020905b81548152906001019060200180831161128957829003601f168201915b505050505081526020016001820154815260200160028201548152602001600382015481525050905060008160400151426112e19190611a45565b905062019500811115611301576112fb6201518082611a58565b60608301525b828260200181815161131391906119c3565b9052504260408381019190915280518581523360208201529081018490527f3a41a813cc9897a9b289c048266df2a9058b65f500e07a2ffb3a220bca6908f19060600160405180910390a150505050565b60008281526020819052604090205460ff161561139457604051632ec8265960e11b815260040160405180910390fd5b7f00000000000000000000000000000000000000000000000000000000000000006001600160a01b0316633bc778e3847f000000000000000000000000000000000000000000000000000000000000000061142588604051602001611411919060609190911b6bffffffffffffffffffffffff1916815260140190565b6040516020818303038152906040526114d0565b867f0000000000000000000000000000000000000000000000000000000000000000876040518763ffffffff1660e01b815260040161146996959493929190611a6c565b60006040518083038186803b15801561148157600080fd5b505afa158015611495573d6000803e3d6000fd5b50505060009283525050602081815260408083208054600160ff19918216811790925533855260069093529220805490911690911790555050565b60006008826040516020016114e59190611aa4565b60408051601f198184030181529190528051602090910120901c92915050565b50805460008255906000526020600020908101906115239190611526565b50565b5b8082111561153b5760008155600101611527565b5090565b60006020828403121561155157600080fd5b5035919050565b60005b8381101561157357818101518382015260200161155b565b50506000910152565b602081526000825160c0602084015280518060e08501526115a581610100860160208501611558565b602085015160408501526040850151606085015260608501516080850152608085015160a085015260a0850151151560c0850152610100601f19601f8301168501019250505092915050565b634e487b7160e01b600052604160045260246000fd5b600082601f83011261161857600080fd5b813567ffffffffffffffff811115611632576116326115f1565b604051601f8201601f19908116603f0116810167ffffffffffffffff81118282101715611661576116616115f1565b60405281815283820160200185101561167957600080fd5b816020850160208301376000918101602001919091529392505050565b600080600080608085870312156116ac57600080fd5b843567ffffffffffffffff8111156116c357600080fd5b6116cf87828801611607565b97602087013597506040870135966060013595509350505050565b80356001600160a01b038116811461170157600080fd5b919050565b6000806040838503121561171957600080fd5b82359150611729602084016116ea565b90509250929050565b602080825282518282018190526000918401906040840190835b818110156117735783516001600160a01b031683526020938401939092019160010161174c565b509095945050505050565b6000806040838503121561179157600080fd5b82359150602083013567ffffffffffffffff8111156117af57600080fd5b6117bb85828601611607565b9150509250929050565b600080604083850312156117d857600080fd5b50508035926020909101359150565b60008060008061016085870312156117fe57600080fd5b611807856116ea565b93506020850135925060408501359150610160850186101561182857600080fd5b509194909350909160600190565b600181811c9082168061184a57607f821691505b60208210810361186a57634e487b7160e01b600052602260045260246000fd5b50919050565b601f8211156118ba57806000526020600020601f840160051c810160208510156118975750805b601f840160051c820191505b818110156118b757600081556001016118a3565b50505b505050565b815167ffffffffffffffff8111156118d9576118d96115f1565b6118ed816118e78454611836565b84611870565b6020601f82116001811461192157600083156119095750848201515b600019600385901b1c1916600184901b1784556118b7565b600084815260208120601f198516915b828110156119515787850151825560209485019460019092019101611931565b508482101561196f5786840151600019600387901b60f8161c191681555b50505050600190811b01905550565b634e487b7160e01b600052601160045260246000fd5b6000600182016119a6576119a661197e565b5060010190565b634e487b7160e01b600052603260045260246000fd5b808201808211156104a6576104a661197e565b80820281158282048414176104a6576104a661197e565b634e487b7160e01b600052601260045260246000fd5b600082611a1257611a126119ed565b500490565b6020808252601490820152732330b4b632b2103a379039b2b7321022ba3432b960611b604082015260600190565b818103818111156104a6576104a661197e565b600082611a6757611a676119ed565b500690565b60006101a0820190508782528660208301528560408301528460608301528360808301526101008360a0840137979650505050505050565b60008251611ab6818460208701611558565b919091019291505056fea2646970667358221220bdf8fa321256bf843348e02698db116398f24ee5e77e52b10d23b5407a5acc2064736f6c634300081a0033","linkReferences":{}},"methodIdentifiers":{"addDailyRun(uint256,uint256)":"e96b46d8","completeChallenge(uint256)":"a7817bbc","createNewChallenge(string,uint256,uint256,uint256)":"5cafbc90","getChallengeDetail(uint256)":"434cba47","getLeaderBoard(uint256)":"bffde480","isParticipant(uint256,address)":"758d9b89","joinChallenge(uint256,string)":"d3ad3e34","verifyAndExecute(address,uint256,uint256,uint256[8])":"e9b70553"},"id":20}